:020000040800F2
:1000000000000120F13500089F210008A721000809
:10001000AF210008B7210008BF2100080000000040
:10002000000000000000000000000000C7210008E0
:10003000D321000800000000DF210008EB210008A8
:100040004136000841360008F92100084136000811
:1000500041360008413600084136000841360008A4
:100060004136000841360008413600080D220008DC
:1000700021220008352200084136000841360008D8
:100080004136000841360008413600084136000874
:1000900000000000413600084136000841360008E3
:1000A0004136000841360008413600084136000854
:1000B0004136000841360008413600084136000844
:1000C0004136000841360008413600084136000834
:1000D00049220008413600085D2200084136000828
:1000E00041360008712200088922000841360008C4
:1000F0004136000800000000000000004136000802
:1001000041360008413600089D22000841360008AB
:1001100041360008413600084136000841360008E3
:1001200041360008413600084136000841360008D3
:080130004136000841360008C9
:1001400010B5054C237833B9044B13B10448AFF311
:1001500000800123237010BD240300200000000054
:10016000783F020808B5034B1BB103490348AFF3BE
:10017000008008BD0000000028030020783F02082E
:10018000034613F8012B002AFBD1181A01387047D7
:1001900001F0FF01102A2BDB10F0070F08D010F838
:1001A000013B013A8B422DD010F0070F42B3F6D13C
:1001B000F0B441EA012141EA014122F007047FF055
:1001C00000070023F0E80256083C85EA010586EAAC
:1001D000010685FA47F5A3FA87F586FA47F6A5FAE8
:1001E00087F68EB9EED1F0BC01F0FF0102F00702F4
:1001F00032B110F8013B013A83EA010313B1F8D19F
:100200000020704701387047002D06BF354603387F
:10021000073815F0010F07D1013015F4807F02BFB8
:10022000013015F4C03F0130F0BC0138704700BF09
:1002300081F0004102E000BF83F0004330B54FEA97
:1002400041044FEA430594EA050F08BF90EA020F04
:100250001FBF54EA000C55EA020C7FEA645C7FEA97
:10026000655C00F0E2804FEA5454D4EB5555B8BFBA
:100270006D420CDD2C4480EA020281EA030382EA2B
:10028000000083EA010180EA020281EA0303362DBD
:1002900088BF30BD11F0004F4FEA01314FF4801C90
:1002A0004CEA113102D0404261EB410113F0004FA2
:1002B0004FEA03334CEA133302D0524263EB430359
:1002C00094EA050F00F0A780A4F10104D5F1200EF7
:1002D0000DDB02FA0EFC22FA05F2801841F1000152
:1002E00003FA0EF2801843FA05F359410EE0A5F126
:1002F00020050EF1200E012A03FA0EFC28BF4CF057
:10030000020C43FA05F3C01851EBE37101F000450C
:1003100007D54FF0000EDCF1000C7EEB00006EEB19
:100320000101B1F5801F1BD3B1F5001F0CD34908A3
:100330005FEA30004FEA3C0C04F101044FEA4452FA
:1003400012F5800F80F09A80BCF1004F08BF5FEA81
:10035000500C50F1000041EB045141EA050130BD61
:100360005FEA4C0C404141EB0101013C28BFB1F573
:10037000801FE9D291F0000F04BF01460020B1FABE
:1003800081F308BF2033A3F10B03B3F120020CDA91
:100390000C3208DD02F1140CC2F10C0201FA0CF06F
:1003A00021FA02F10CE002F11402D8BFC2F1200CD4
:1003B00001FA02F120FA0CFCDCBF41EA0C0190408A
:1003C000E41AA2BF01EB0451294330BD6FEA0404D3
:1003D0001F3C1CDA0C340EDC04F11404C4F12002BE
:1003E00020FA04F001FA02F340EA030021FA04F3D0
:1003F00045EA030130BDC4F10C04C4F1200220FA27
:1004000002F001FA04F340EA0300294630BD21FA64
:1004100004F0294630BD94F0000F83F4801306BF2A
:1004200081F480110134013D4EE77FEA645C18BF1E
:100430007FEA655C29D094EA050F08BF90EA020FB5
:1004400005D054EA000C04BF1946104630BD91EAAD
:10045000030F1EBF0021002030BD5FEA545C05D1B0
:100460004000494128BF41F0004130BD14F58004EF
:100470003CBF01F5801130BD01F0004545F0FE4163
:1004800041F470014FF0000030BD7FEA645C1ABF98
:10049000194610467FEA655C1CBF0B46024650EACF
:1004A000013406BF52EA033591EA030F41F40021FB
:1004B00030BD00BF90F0000F04BF0021704730B581
:1004C0004FF4806404F132044FF000054FF0000156
:1004D00050E700BF90F0000F04BF0021704730B517
:1004E0004FF4806404F1320410F0004548BF4042EC
:1004F0004FF000013EE700BF42004FEAE2014FEA41
:1005000031014FEA02701FBF12F07F4393F07F4F1B
:1005100081F06051704732F07F4208BF704793F01E
:100520007F4F04BF41F40021704730B54FF4607431
:1005300001F0004521F000411CE700BF50EA010234
:1005400008BF704730B54FF000050AE050EA0102DD
:1005500008BF704730B511F0004502D5404261EB4D
:1005600041014FF4806404F132045FEA915C3FF48E
:10057000D8AE4FF003025FEADC0C18BF03325FEA2B
:10058000DC0C18BF033202EBDC02C2F1200300FADC
:1005900003FC20FA02F001FA03FE40EA0E0021FA01
:1005A00002F11444BDE600BF70B54FF0FF0C4CF4EF
:1005B000E06C1CEA11541DBF1CEA135594EA0C0FA1
:1005C00095EA0C0F00F0DEF82C4481EA030621EADC
:1005D0004C5123EA4C5350EA013518BF52EA033517
:1005E00041F4801143F4801338D0A0FB02CE4FF0C9
:1005F0000005E1FB02E506F00042E0FB03E54FF0F9
:100600000006E1FB03569CF0000F18BF4EF0010EF0
:10061000A4F1FF04B6F5007F64F5407404D25FEAEC
:100620004E0E6D4146EB060642EAC62141EA55519F
:100630004FEAC52040EA5E504FEACE2EB4F1FD0CE1
:1006400088BFBCF5E06F1ED8BEF1004F08BF5FEA5F
:10065000500E50F1000041EB045170BD06F0004611
:1006600046EA010140EA020081EA0301B4EB5C04BE
:10067000C2BFD4EB0C0541EA045170BD41F48011B6
:100680004FF0000E013C00F3AB8014F1360FDEBFDB
:10069000002001F0004170BDC4F10004203C35DAB7
:1006A0000C341BDC04F11404C4F1200500FA05F33A
:1006B00020FA04F001FA05F240EA020001F00042DB
:1006C00021F0004110EBD37021FA04F642EB060151
:1006D0005EEA430E08BF20EAD37070BDC4F10C047B
:1006E000C4F1200500FA04F320FA05F001FA04F23F
:1006F00040EA020001F0004110EBD37041F100012B
:100700005EEA430E08BF20EAD37070BDC4F1200535
:1007100000FA05F24EEA020E20FA04F301FA05F29D
:1007200043EA020321FA04F001F0004121FA04F245
:1007300020EA020000EBD3705EEA430E08BF20EA15
:10074000D37070BD94F0000F0FD101F0004640004F
:1007500041EB010111F4801F08BF013CF7D041EAD1
:10076000060195F0000F18BF704703F000465200D5
:1007700043EB030313F4801F08BF013DF7D043EAA6
:100780000603704794EA0C0F0CEA135518BF95EA5C
:100790000C0F0CD050EA410618BF52EA4306D1D1E3
:1007A00081EA030101F000414FF0000070BD50EA02
:1007B000410606BF1046194652EA430619D094EA8C
:1007C0000C0F02D150EA013613D195EA0C0F05D176
:1007D00052EA03361CBF104619460AD181EA0301CA
:1007E00001F0004141F0FE4141F470014FF0000082
:1007F00070BD41F0FE4141F4780170BD70B54FF01D
:10080000FF0C4CF4E06C1CEA11541DBF1CEA13559C
:1008100094EA0C0F95EA0C0F00F0A7F8A4EB05047E
:1008200081EA030E52EA03354FEA013100F0888075
:100830004FEA03334FF0805545EA131343EA12633E
:100840004FEA022245EA111545EA10654FEA0026F3
:100850000EF000419D4208BF964244F1FD0404F5AC
:10086000407402D25B084FEA3202B61A65EB030508
:100870005B084FEA32024FF480104FF4002CB6EBC5
:10088000020E75EB030E22BFB61A754640EA0C0045
:100890005B084FEA3202B6EB020E75EB030E22BF85
:1008A000B61A754640EA5C005B084FEA3202B6EBC6
:1008B000020E75EB030E22BFB61A754640EA9C0085
:1008C0005B084FEA3202B6EB020E75EB030E22BF55
:1008D000B61A754640EADC0055EA060E18D04FEA13
:1008E000051545EA16754FEA06164FEAC30343EAB3
:1008F00052734FEAC2025FEA1C1CC0D111F4801F80
:100900000BD141EA00014FF000004FF0004CB6E778
:1009100011F4801F04BF01430020B4F1FD0C88BF17
:10092000BCF5E06F3FF6AFAEB5EB030C04BFB6EB22
:10093000020C5FEA500C50F1000041EB045170BD15
:100940000EF0004E4EEA113114EB5C04C2BFD4EB42
:100950000C0541EA045170BD41F480114FF0000EC6
:10096000013C90E645EA060E8DE60CEA135594EA42
:100970000C0F08BF95EA0C0F3FF43BAF94EA0C0F45
:100980000AD150EA01347FF434AF95EA0C0F7FF4BA
:1009900025AF104619462CE795EA0C0F06D152EA0E
:1009A00003353FF4FDAE1046194622E750EA4106F2
:1009B00018BF52EA43067FF4C5AE50EA41047FF403
:1009C0000DAF52EA43057FF4EBAE12E74FF0FF3C68
:1009D00006E000BF4FF0010C02E000BF4FF0010C39
:1009E0004DF804CD4FEA410C7FEA6C5C4FEA430CB2
:1009F00018BF7FEA6C5C1BD001B050EA410C0CBF01
:100A000052EA430C91EA030F02BF90EA020F002062
:100A1000704710F1000F91EA030F58BF994208BFC9
:100A200090422CBFD8176FEAE37040F00100704786
:100A30004FEA410C7FEA6C5C02D150EA013C07D1DD
:100A40004FEA430C7FEA6C5CD6D152EA033CD3D028
:100A50005DF8040B704700BF8446104662468C4622
:100A60001946634600E000BF01B5FFF7B7FF002855
:100A700048BF10F1000F01BD4DF808EDFFF7F4FF7E
:100A80000CBF012000205DF808FB00BF4DF808ED09
:100A9000FFF7EAFF34BF012000205DF808FB00BF2C
:100AA0004DF808EDFFF7E0FF94BF012000205DF84E
:100AB00008FB00BF4DF808EDFFF7CEFF94BF012003
:100AC00000205DF808FB00BF4DF808EDFFF7C4FFFC
:100AD00034BF012000205DF808FB00BF4FEA41024F
:100AE00012F5001215D211D56FF47873B3EB625280
:100AF00012D94FEAC12343F0004343EA505311F0A7
:100B0000004F23FA02F018BF404270474FF0000038
:100B1000704750EA013005D111F0004008BF6FF076
:100B2000004070474FF00000704700BF4A0011D2EC
:100B300012F5001211D20DD56FF47873B3EB625237
:100B40000ED44FEAC12343F0004343EA505323FA43
:100B500002F070474FF00000704750EA013002D1B8
:100B60004FF0FF3070474FF0000070474FEA4102EE
:100B7000B2F1E04324BFB3F5001CDCF1FE5C0DD9FB
:100B800001F0004C4FEAC0024CEA5070B2F1004F45
:100B900040EB830008BF20F00100704711F0804F48
:100BA00021D113F13872BCBF01F00040704741F40D
:100BB00080114FEA5252C2F11802C2F1200C10FA11
:100BC0000CF320FA02F018BF40F001004FEAC123F5
:100BD0004FEAD32303FA0CFC40EA0C0023FA02F399
:100BE0004FEA4303CCE77FEA625307D150EA01336F
:100BF0001EBF4FF0FE4040F44000704701F000403F
:100C000040F0FE4040F40000704700BF80F000401C
:100C100002E000BF81F0004142001FBF5FEA4103D4
:100C200092EA030F7FEA226C7FEA236C6AD04FEAD4
:100C30001262D2EB1363C1BFD21841404840414019
:100C4000B8BF5B42192B88BF704710F0004F40F4CB
:100C5000000020F07F4018BF404211F0004F41F4E7
:100C6000000121F07F4118BF494292EA030F3FD0B3
:100C7000A2F1010241FA03FC10EB0C00C3F12003C6
:100C800001FA03F100F0004302D5494260EB400055
:100C9000B0F5000F13D3B0F1807F06D340084FEAC0
:100CA000310102F10102FE2A51D2B1F1004F40EBB5
:100CB000C25008BF20F0010040EA0300704749001D
:100CC00040EB0000013A28BFB0F5000FEDD2B0FABA
:100CD00080FCACF1080CB2EB0C0200FA0CF0AABFDD
:100CE00000EBC25052421843BCBFD040184370477B
:100CF00092F0000F81F4000106BF80F40000013281
:100D0000013BB5E74FEA41037FEA226C18BF7FEA57
:100D1000236C21D092EA030F04D092F0000F08BF99
:100D20000846704790EA010F1CBF0020704712F080
:100D30007F4F04D1400028BF40F00040704712F1BF
:100D400000723CBF00F50000704700F0004343F024
:100D5000FE4040F4000070477FEA226216BF08465A
:100D60007FEA23630146420206BF5FEA412390EA1D
:100D7000010F40F4800070474FF0000304E000BF13
:100D800010F0004348BF40425FEA000C08BF7047C4
:100D900043F0964301464FF000001CE050EA010288
:100DA00008BF70474FF000030AE000BF50EA01029D
:100DB00008BF704711F0004302D5404261EB41018A
:100DC0005FEA010C02BF84460146002043F0B643AF
:100DD00008BFA3F18053A3F50003BCFA8CF2083AD4
:100DE000A3EBC25310DB01FA02FC634400FA02FCDD
:100DF000C2F12002BCF1004F20FA02F243EB0200E4
:100E000008BF20F00100704702F1200201FA02FC45
:100E1000C2F1200250EA4C0021FA02F243EB020038
:100E200008BF20EADC7070474FF0FF3C06E000BFCF
:100E30004FF0010C02E000BF4FF0010C4DF804CD63
:100E40004FEA40024FEA41037FEA226C18BF7FEA73
:100E5000236C11D001B052EA530C18BF90EA010F75
:100E600058BFB2EB030088BFC81738BF6FEAE17004
:100E700018BF40F0010070477FEA226C02D15FEAA0
:100E8000402C05D17FEA236CE4D15FEA412CE1D00C
:100E90005DF8040B704700BF844608466146FFE7D3
:100EA0000FB5FFF7C9FF002848BF10F1000F0FBDB5
:100EB0004DF808EDFFF7F4FF0CBF012000205DF8AE
:100EC00008FB00BF4DF808EDFFF7EAFF34BF012033
:100ED00000205DF808FB00BF4DF808EDFFF7E0FFCC
:100EE00094BF012000205DF808FB00BF4DF808ED1D
:100EF000FFF7D2FF94BF012000205DF808FB00BF80
:100F00004DF808EDFFF7C8FF34BF012000205DF861
:100F100008FB00BF4FEA4002B2F1FE4F0FD34FF083
:100F20009E03B3EB12620DD94FEA002343F0004356
:100F300010F0004F23FA02F018BF404270474FF004
:100F40000000704712F1610F01D1420205D110F08B
:100F5000004008BF6FF0004070474FF0000070473E
:100F600042000ED2B2F1FE4F0BD34FF09E03B3EB13
:100F7000126209D44FEA002343F0004323FA02F03F
:100F800070474FF00000704712F1610F01D142022B
:100F900002D14FF0FF3070474FF00000704700BFA4
:100FA00053B94AB9002908BF00281CBF4FF0FF31D0
:100FB0004FF0FF3000F0A0B9ADF1080C6DE904CEA0
:100FC00000F03CF8DDF804E0DDE9022304B07047EE
:100FD00038B50022002304460D46FFF757FD28B917
:100FE00020462946BDE8384000F00AB8204605F101
:100FF000004100F005F8404261EB410138BD00BFFF
:10100000D0B50C4B002206460F46FFF7CDFAFFF78E
:101010008DFD0446FFF74EFA074B0022FFF7C4FA96
:1010200002460B4630463946FFF706F9FFF77EFDCC
:101030002146D0BD0000F03D0000F0412DE9F04711
:10104000089D0C46002B4ED194468C458646B2FA3C
:1010500082F262D94AB1C2F12003914020FA03F32F
:101060000CFA02FC194300FA02FE4FEA1C471FFA71
:101070008CF6B1FBF7F44FEA1E4307FB141143EA69
:10108000014304FB06F199420AD91CEB030304F166
:10109000FF3080F01281994240F20F81023C63449C
:1010A000591A1FFA8EF3B1FBF7F007FB101143EA50
:1010B000014300FB06F69E420AD91CEB030300F134
:1010C000FF3180F0FC809E4240F2F9806344023898
:1010D0009B1B40EA044000211DB1D3400022C5E91A
:1010E0000032BDE8F0878B4205D90DB1C5E900019A
:1010F00000210846F5E7B3FA83F1002946D1A3425F
:1011000002D39042C0F0F080861A64EB0303012002
:10111000002DE6D0C5E90063E3E7002A40F09080A7
:10112000A1EB0C044FEA1C481FFA8CF70121B4FB19
:10113000F8F64FEA1E4308FB164443EA044307FB54
:1011400006F0984208D91CEB030306F1FF3402D2E3
:10115000984200F2CD8026461C1A1FFA8EF3B4FB8B
:10116000F8F008FB104443EA044300FB07F79F42F2
:1011700008D91CEB030300F1FF3402D29F4200F2B6
:10118000B0802046DB1B40EA0640A5E7C1F12006FF
:101190008B4022FA06F71F4320FA06FC04FA01F3FB
:1011A00043EA0C03F44000FA01F8380C4FEA134903
:1011B000B4FBF0FE1FFA87FC00FB1E4449EA04441E
:1011C0000EFB0CF9A14502FA01F20AD93C190EF105
:1011D000FF3A80F08480A14540F28180AEF1020E9A
:1011E0003C44A4EB09041FFA83F9B4FBF0F300FBC1
:1011F000134449EA044403FB0CFCA44507D93C19F9
:1012000003F1FF3067D2A44565D9023B3C4443EA71
:101210000E40A0FB0293A4EB0C049C42CE469C46DD
:1012200051D34ED055B1B8EB0E0364EB0C0404FA65
:1012300006F6CB401E43CC40C5E90064002150E7D0
:10124000C2F1200320FA03F10CFA02FC24FA03F3A2
:1012500094400C434FEA1C4800FA02FE1FFA8CF738
:10126000B3FBF8F008FB1031230C43EA014300FB09
:1012700007F1994208D91CEB030300F1FF362CD289
:1012800099422AD9023863445B1AA4B2B3FBF8F13D
:1012900008FB113344EA034401FB07F3A34208D9D6
:1012A0001CEB040401F1FF3613D2A34211D9023919
:1012B0006444E41A41EA004139E70446F0E608468E
:1012C00006E7C845AED2B9EB020E63EB070C013856
:1012D000A8E73146EDE7034699E73046D4E7D6461E
:1012E0007FE7634402384DE70646234608460FE78A
:1012F000023E634430E700BF704700BF80B485B052
:1013000000AF78604FF0B043DA6C4FF0B0417B68CB
:101310001343CB644FF0B043DA6C7B681340FB603F
:10132000FB6800BF1437BD4680BC704780B485B0F1
:1013300000AF78604FF0B0431A6E4FF0B0417B6859
:1013400013430B664FF0B0431A6E7B681340FB608B
:10135000FB6800BF1437BD4680BC704780B483B0C3
:1013600000AF78604FF0B0431A6E7B68DB434FF0FC
:10137000B04113400B6600BF0C37BD4680BC7047C0
:1013800080B500AF234B244A1A60224B4FF0004235
:101390005A60204B00229A601E4B0022DA601D4BDF
:1013A00000221A611B4B04225A611A4B00221A7642
:1013B000184B00225A76174B00229A76154B0122C1
:1013C000DA61144B002283F82020124B00225A626B
:1013D000104B00229A620F4B002283F82C200D4BF9
:1013E0004FF480521A630B4B07225A63094B0722B2
:1013F0009A63084B002283F83C20064B0022DA64F3
:10140000044802F0DDFB0346002B01D000F0CAFDCA
:1014100000BF80BD400300200024014080B588B09B
:1014200000AF786007F10C0300221A605A609A60DE
:10143000DA601A617B681B680C4A934212D14FF440
:101440000070FFF773FF0220FFF758FF1023FB60C7
:1014500003233B6100237B6107F10C031946044819
:1014600004F0AEF900BF2037BD4680BD0024014026
:101470000004004880B582B000AF78607B681B68CC
:10148000074A934207D14FF40070FFF767FF10211E
:10149000044804F0F5FA00BF0837BD4680BD00BF20
:1014A000002401400004004880B400AF034B044A0C
:1014B0001A6000BFBD4680BC704700BF40030020DB
:1014C0000024014080B58CB006AF0023FB810023CF
:1014D000BB6000237B6100237B6000233B612A48C3
:1014E00000F060F8B860BB68002B01D1002347E032
:1014F000264B1B884FF6FF7293420BD0234B1B8861
:101500001A4640F6E44303FB02F2BB68B2FBF3F376
:101510007B6104E01E4ABB68B2FBF3F37B611D48AC
:1015200000F040F878607B68002B02D100233B611B
:101530000BE07B687A6903FB02F2174BA3FB0213F3
:10154000D21A52081344DB0A3B613B6940F2931202
:1015500002FB03F3114AA2FB03235B09FB81FB8916
:1015600004933B6903937B6802937B690193BB6897
:1015700000930B4B0122002102201FF0A1F9FB89EF
:1015800018461837BD4680BD002000B4AA75FF1F5D
:10159000D8084C000800000C010110001F85EB5119
:1015A000903F020880B586B000AF786000237B6171
:1015B00007F1080300221A605A609A60FFF7E0FE04
:1015C0001A4803F01CF90346002B01D000F0EAFC96
:1015D0007B68BB600023FB6000233B6107F10803CD
:1015E0001946124802F028FE0346002B01D000F0F5
:1015F000D9FC0E4802F004FD0346002B01D000F098
:10160000D1FC4FF0FF31094802F072FD074802F0AB
:101610003DFD064802F003FE7861044802F064FCD8
:101620007B6918461837BD4680BD00BF40030020C7
:1016300080B485B000AF78604FF0B0439A6C4FF043
:10164000B0417B6813438B644FF0B0439A6C7B6866
:101650001340FB60FB6800BF1437BD4680BC704779
:1016600080B500AF0420FFF7E3FF0120FFF7E0FFA4
:10167000002200210B2003F068FA0B2003F07FFA10
:10168000002200210C2003F060FA0C2003F077FA0E
:10169000002200210D2003F058FA0D2003F06FFA0C
:1016A00000BF80BD80B586B000AFF860B9607A60D9
:1016B000FF23FB75FB68B3F1006F11D30B4B1B6865
:1016C0009A020B4B134003F10063013BFA6893420B
:1016D00006D37A68B968F86800F05AF80346FB75D3
:1016E00097F9173018461837BD4680BDE075FF1FC3
:1016F00000FCFF0380B586B000AFF860B9607A6087
:10170000FF23FB75BB68B3F1006F11D30B4B1B6854
:101710009A020B4B134003F10063013BBA689342FA
:1017200006D37A68B968F86800F03AF90346FB75A1
:1017300097F9173018461837BD4680BDE075FF1F72
:1017400000FCFF0380B584B000AF78603960FF23F0
:10175000FB737B68B3F1006F10D30B4B1B689A02CD
:101760000A4B134003F10063013B7A68934205D3AF
:101770003968786800F032F90346FB7397F90F3047
:1017800018461037BD4680BDE075FF1F00FCFF0303
:1017900080B590B000AFF860B9607A60002387F838
:1017A0003F30FB68BB63BB687B637B683B63FB6864
:1017B000002B0CD0BB68002B09D07B6803F007031B
:1017C000002B04D1FB6803F00703002B02D06FF05D
:1017D0000503DAE000F092F9034687F83F3097F905
:1017E0003F30002B40F0CF8003F014FE0346002B67
:1017F00040F0C680BB6B03F17842664B1B689902D0
:10180000654B0B40B2FBF3F101FB03F3D31ADB0A88
:10181000BB61BA6B7B68134403F17843013B5D4ABB
:10182000126891025C4A0A40B3FBF2F101FB02F23A
:101830009B1ADA0ABB69D31A01337B617B69012BDE
:1018400005D9BB6BC3F30A03C3F500633B63BB69F4
:10185000FB6289E0FB6A03F58033DB023B61396B95
:10186000F86800F025F90346002B31D04B4B1B687C
:10187000002B03D1FA2387F83F307EE0474B1B68EB
:1018800039694FF40062184600F08AF8434B1A6831
:10189000BB6BC3F30A031344796B3A6B92B21846DD
:1018A0001EF02AF83B694FF40061184600F096F8E4
:1018B0000346002B03D0FE2387F83F305DE03B69F1
:1018C0007B62364B1B683B624FF40063FB6105E0B3
:1018D000BB6B7B627B6B3B623B6BFB610023BB6240
:1018E00026E03A6ABB6A1344D3E90023796A0120EF
:1018F00003F04CFD0346002B13D17B6AD3E90001B2
:101900003A6ABB6A1344D3E90023994208BF904264
:1019100003D0FC2387F83F300EE07B6A08337B62FC
:1019200003E0FC2387F83F3006E0BB6A0833BB6264
:10193000BA6AFB699A42D4D397F93F30002B1BD186
:10194000BA6B3B6B1344BB637A6B3B6B13447B6397
:101950007A683B6BD31AB3F5006F28BF4FF400636E
:101960003B63FB6A0133FB62BA697B691344FA6A21
:101970009A42FFF46FAF00E000BF03F06DFD02E09C
:10198000FB2387F83F3097F93F3018464037BD4674
:1019900080BD00BFE075FF1F00FCFF03A403002013
:1019A00080B586B000AFF860B9607A600023FB753F
:1019B000FB68002B02D0BB68002B02D16FF005033F
:1019C00008E07B689BB21A46B968F8681DF094FF7E
:1019D00097F9173018461837BD4680BD80B588B0D6
:1019E00000AF786039600023FB770123BB770023C9
:1019F0007B617B68BB617B68002B02D16FF00503C4
:101A00004EE000F07BF80346FB7797F91F30002B80
:101A100044D103F0FFFC0346002B3DD10223BB6001
:101A2000BB6903F17842204B1B6899021F4B0B40A6
:101A3000B2FBF3F101FB03F3D31ADB0AFB60BA69D3
:101A40003B68134403F17843013B174A1268910243
:101A5000164A0A40B3FBF2F101FB02F29B1ADA0AC2
:101A6000FB68D31A01333B6107F1140207F1080345
:101A70001146184603F0D0FD0346BB77BB7F002B11
:101A800007D0BB7F022B01D1012301E06FF00103DE
:101A9000FB7703F0E1FC01E0FB23FB7797F91F30B4
:101AA00018462037BD4680BDE075FF1F00FCFF03D0
:101AB00080B485B000AF786039600023FB600023FC
:101AC000BB6011E07B68D3E90023B3F1FF3F08BF9F
:101AD000B2F1FF3F02D00123FB6009E07B680833CD
:101AE0007B60BB680833BB60BA683B689A42E9D345
:101AF000FB6818461437BD4680BC704780B582B07D
:101B000000AFFB23FB7103F085FC0346002B10D1D3
:101B10000B4B9B690A4A43F040439361084B4CF2DC
:101B2000FA321A6103F098FC0346002B01D100231E
:101B3000FB7197F9073018460837BD4680BD00BFD6
:101B40000040005880B485B000AF78604FF0B043DB
:101B5000DA6C4FF0B0417B681343CB644FF0B04375
:101B6000DA6C7B681340FB60FB6800BF1437BD462E
:101B700080BC704780B586B000AF3B1D00221A6064
:101B80005A609A60DA601A610120FFF7DBFF0220D9
:101B9000FFF7D8FF0420FFF7D5FF002208214048B7
:101BA00004F053F8012220213D4804F04EF80022B1
:101BB00040F231214FF0904004F047F84FF40043D9
:101BC0007B601223BB600023FB6000233B61042386
:101BD0007B613B1D19464FF0904003F0F1FD4FF43F
:101BE00000437B601223BB600023FB6000233B614A
:101BF00004237B613B1D1946294803F0E1FD28239E
:101C00007B600123BB600023FB6003233B613B1D22
:101C10001946234803F0D4FD31237B600123BB60C8
:101C20000023FB6003233B613B1D19464FF09040AE
:101C300003F0C6FD4FF400537B604FF40413BB6008
:101C40000123FB603B1D1946154803F0B9FD4FF415
:101C500000737B600123BB600023FB6000233B61BA
:101C60003B1D19464FF0904003F0AAFD4FF48063EE
:101C70007B604FF48813BB600123FB603B1D19465A
:101C8000074803F09DFD00220021292002F05DFF9E
:101C9000292002F074FF00BF1837BD4680BD00BF89
:101CA0000004004880B483B000AF78604FF0B043C8
:101CB000D3F8903023F018024FF0B0417B68134303
:101CC000C1F8903000BF0C37BD4680BC70470000A3
:101CD00080B582B000AF7860391D4FF0FF3301222C
:101CE000034806F026FC7B6818460837BD4680BDD1
:101CF000AC04002080B584B002AF01F073FD00F0A9
:101D000069F8FFF737FF08F063FE01F017F901F0FB
:101D100061F94FF400133B603B4693E80600264808
:101D200008F0A7FC00BF244B1B68DB6903F4803379
:101D3000B3F5803FF7D000BF1F4B1B68DB6903F48E
:101D40008003B3F5800FF7D11B4B1B689A681A4BC1
:101D50001B6842F480029A6000230093174B002214
:101D60004FF47A7116481EF0FDFA134808F0DCFCB7
:101D70001448FEF705FA03469AB24FF0FF331149B3
:101D80000D4806F0D6FB01220F490B4806F058FC1F
:101D90000E4B1B78DBB2002B01D000F0ABF80C4BE4
:101DA0001B78DBB2002B04D0094B00221A7000F024
:101DB0007BF808F015FEEBE7AC040020891E000854
:101DC000AC030020000000206C06002072080020F8
:101DD000A903002080B59AB000AF07F12003482284
:101DE000002118461FF0A9FF07F1080300221A601E
:101DF0005A609A60DA601A615A6103F055FF002058
:101E0000FFF750FF1F4B1B6823F4C0631D4A43F4C8
:101E1000007313601B4B1B6803F4C0637B607B681B
:101E200024233B628123FB6201233B6400237B6408
:101E3000B023BB640023FB6407F12003184604F0C1
:101E40007FFA0346002B01D000F0ACF84F23BB60B3
:101E50000023FB6000233B6100237B610023BB6107
:101E60000023FB6107F108030221184604F0EAFD94
:101E70000346002B01D000F095F800BF6837BD463F
:101E800080BD00BF0004005880B582B000AF78600C
:101E900000224FF400714FF0904003F0D6FE00BFD7
:101EA0000837BD4680BD0000B0B58CB000AF0F4B09
:101EB0003C461D460FCD0FC40FCD0FC495E80F0053
:101EC00007C4238002341B0C23703B461846FEF7E0
:101ED00057F903469AB239464FF0FF33044806F0EB
:101EE00028FB00BF3037BD46B0BD00BFE43F02084D
:101EF000AC040020B0B58EB000AF234B07F11C043A
:101F00001D460FCD0FC495E8070003C4228002349C
:101F1000130C237007F11C031846FEF731F9034632
:101F20009AB207F11C014FF0FF33184806F001FB8D
:101F3000174B1B889AB24FF0FF331649134806F02F
:101F4000F8FA154B3C1D1D460FCD0FC495E8030054
:101F500084E803003B1D1846FEF712F903469AB2C7
:101F6000391D4FF0FF33094806F0E3FA0B4B01220D
:101F70001A700B4B00221A70054B00221A8000BF0A
:101F80003837BD46B0BD00BF14400208AC04002085
:101F9000700800207006002030400208A8030020CE
:101FA0007208002080B400AF72B600BF00BFFDE72A
:101FB00080B400AF4FF0B043D3F890304FF0B04250
:101FC00043F40043C2F8903000BFBD4680BC704768
:101FD00080B485B000AF78604FF0B0439A6D4FF099
:101FE000B0417B6813438B654FF0B0439A6D7B68BB
:101FF0001340FB60FB6800BF1437BD4680BC7047D0
:1020000080B58CB000AF3B1D2C22002118461FF07C
:1020100094FE224B224A1A60204B1F229A601F4BCB
:1020200000221A611D4B00225A611C4B00229A614A
:102030001A4B4FF08042DA61184B00221A62174B9C
:102040004FF480725A62154805F0B8F90346002B28
:1020500001D0FFF7A7FF114805F0AEFC0346002BA7
:1020600001D0FFF79FFF00233B620023BB600023EA
:10207000BB614FF00053FB614FF48073FB623B1D6B
:1020800000221946054805F01BFA0346002B01D033
:10209000FFF788FF00BF3037BD4680BDC403002076
:1020A0000028004080B590B000AF786007F10803C9
:1020B0003822002118461FF040FE7B681B68164A34
:1020C000934225D14FF48033BB604FF48073FB63A0
:1020D00007F10803184605F057F80346002B01D016
:1020E000FFF760FFFFF764FF4FF48060FFF770FFBA
:1020F00000220021022002F028FD022002F03FFD14
:10210000002200212A2002F020FD2A2002F037FDC3
:1021100000BF4037BD4680BD0028004080B400AFFE
:10212000034B0122C3F8882000BFBD4680BC704726
:102130000004005880B400AF00BFBD4680BC7047AB
:1021400080B400AF00BFBD4680BC704780B500AF13
:1021500001F068FBFFF7E2FF012003F037FE00BF4C
:1021600080BD80B500AF01F06BFB01F093F900BFBB
:1021700080BD80B500AF01F055FB0121002003F0C8
:10218000A1FD00BF80BD80B500AF01F059FB00BFCD
:1021900080BD80B400AF00BFBD4680BC704780B436
:1021A00000AF00BFFDE780B400AF00BFFDE780B423
:1021B00000AF00BFFDE780B400AF00BFFDE780B413
:1021C00000AF00BFFDE780B400AF00BFBD4680BCDC
:1021D000704780B400AF00BFBD4680BC704780B47C
:1021E00000AF00BFBD4680BC704780B400AF00BFE9
:1021F000BD4680BC7047000080B500AF024805F0C6
:1022000017FC00BF80BD00BFC403002080B500AF35
:10221000024802F04BFF00BF80BD00BF4005002018
:1022200080B500AF024802F041FF00BF80BD00BF93
:10223000A005002080B500AF024802F037FF00BFC4
:1022400080BD00BF0006002080B500AF024806F048
:10225000C3FA00BF80BD00BFAC04002080B500AF52
:10226000024806F0B9FA00BF80BD00BF1804002084
:1022700080B500AF4FF4806003F0FEFC4FF40050D7
:1022800003F0FAFC00BF80BD80B500AF024805F046
:102290007FFA00BF80BD00BFC403002080B500AF3F
:1022A000024805F033FF00BF80BD00BFFC030020E3
:1022B00080B485B000AF78604FF0B0435A6E4FF0F5
:1022C000B0417B6813434B664FF0B0435A6E7B6856
:1022D0001340FB60FB6800BF1437BD4680BC7047ED
:1022E00080B500AF064B08221A60054805F08CFC4B
:1022F0000346002B01D0FFF755FE00BF80BD00BF95
:10230000FC03002080B582B000AF78600120FFF7A9
:10231000CFFF00220021322002F017FC322002F011
:102320002EFC00BF0837BD4680BD80B483B000AF2F
:1023300078604FF0B0439B6823F400424FF0B04107
:102340007B6813438B6000BF0C37BD4680BC704771
:1023500080B400AF024B1B681846BD4680BC704776
:102360008075FF1F80B400AF034B1B68DBB21846BB
:10237000BD4680BC704700BF8475FF1F80B400AFAE
:10238000034B1B681B0A1846BD4680BC704700BF44
:102390008475FF1F80B500AF0020FFF7C6FF1DF05A
:1023A000D1FF104B01221A7000F018FA1EF05AFAF1
:1023B0000D481EF005FB0D4B4FF400421A61022040
:1023C0001EF00CFBFFF770F800F03CFA1DF0EEF980
:1023D000012101201DF02AFA012101201DF0F6F94A
:1023E00000BF80BD08040020FD2600080040005802
:1023F00080B500AF1DF04AFA00BF80BDB0B594B003
:1024000004AF002387F83F30002387F83E30FFF702
:1024100059F803467B867B8E002B01D1FF23AEE06B
:10242000594B07F10C041D460FCD0FC42B682360D8
:10243000564A3B4607CA03C31A800A23FB62BB897C
:102440007A8E9A4203D83B7887F83E3066E0FB6A82
:10245000013B5B0040333B4433F8343C7A8E9A4274
:1024600008D3FB6A013B40333B4413F8403C87F8F8
:102470003E3053E00023BB634BE0BB6B5B0040335B
:102480003B4433F8343C7A8E9A423FD3BB6B0133E2
:102490005B0040333B4433F8343C7A8E9A4235D269
:1024A000BB6B01335B0040333B4433F8343C1A468A
:1024B000BB6B5B0040333B4433F8343CD31ABB6204
:1024C000BB6B013340333B4413F8403C19463A465A
:1024D000BB6B13441B78CB1A7B627A8EBB6B5B00A1
:1024E00040333B4433F8343CD31A3B623A46BB6B2F
:1024F00013441A783B6A796A03FB01F1BB6AB1FBAA
:10250000F3F3DBB2134487F83E3007E0BB6B0133D3
:10251000BB63FB6A013BBA6B9A42AEDB97F83E3075
:10252000002B03D1012387F83F3018E097F83E20B5
:102530001346DB019B1A5B001A46154BA3FB0223D3
:102540005B097B637B6B002B01D101237B637B6B7E
:10255000FE2B01D9FE237B637B6B87F83F307B8E9C
:1025600097F83E2097F83F10029101920093094B93
:102570000122002102201EF0A3F997F83F301846EF
:102580004037BD46B0BD00BF7C4002089040020805
:102590001F85EB514840020880B588B000AF00238A
:1025A000FB833B1D184600F023F9BB681846FEF775
:1025B000B1FC0346FB83B7F91E3018462037BD46F1
:1025C00080BD90B587B000AF786000237B61FFF7D6
:1025D000BFFE78617B69B3F1FF3F38D101F03EF96E
:1025E000044601F04FF9034623443B6101F040F9F2
:1025F000F8603B691A0E7B680733D2B21A703B69E8
:102600001A0C7B680633D2B21A703B691A0A7B68CF
:102610000533D2B21A707B6804333A69D2B21A70A9
:10262000FB681A0E7B680333D2B21A70FB681A0C6F
:102630007B680233D2B21A70FB681A0A7B680133D6
:10264000D2B21A70FB68DAB27B681A7031E07B682C
:1026500007337A69D2B21A707B691A0A7B6806332B
:10266000D2B21A707B691A0C7B680533D2B21A7029
:102670007B691A0E7B680433D2B21A70FFF772FEC0
:1026800078617B6803337A69D2B21A70FFF776FEFD
:1026900078617B6802337A69D2B21A707B691A0A50
:1026A0007B680133D2B21A707B691B0CDAB27B688B
:1026B0001A7000BF1C37BD4690BD90B583B000AF07
:1026C0007860FFF745FE02467B681A607B681B68EE
:1026D000B3F1FF3F0DD101F0C1F8044601F0C8F895
:1026E00003465C4001F0CEF8034684EA03027B68AF
:1026F0001A6000BF0C37BD4690BD000080B586B0A3
:1027000002AF7860396007F1080318461DF0CEF972
:10271000BB68B7F90C200092074A1021786800F0D6
:102720001DF87868FDF72CFD03469AB23B681A80C5
:1027300000BF1037BD4680BD9C40020880B500AF89
:10274000012102201DF042F800BF80BD80B500AF1E
:10275000002102201DF03AF800BF80BD0CB480B506
:1027600084B000AF7860396007F11C03FB60396802
:10277000FB68BA6978681DF005FB00BF1037BD46DD
:10278000BDE8804002B0704780B483B000AF78608D
:10279000002318460C37BD4680BC704780B582B018
:1027A00000AF00237B60064B1B78002B02D000F0AB
:1027B000D7F978607B6818460837BD4680BD00BFF2
:1027C0000804002080B582B000AF78607B681846AE
:1027D00000F04DFA00BF0837BD4680BD80B500AFA0
:1027E00001F05AF801F05EF801F062F800BF80BD18
:1027F00080B487B000AF78600D4B7B610D4B3B61BF
:102800000D4BFB607B687A699A607B683A695A6015
:102810007B68FA681A607B68084ADA607B68084A55
:102820001A61002318461C37BD4680BC704700BFA4
:10283000000048420000904100007A440D093E002B
:10284000AB03050080B483B000AF00237B6000239E
:1028500018460C37BD4680BC704780B400AF0123DA
:102860001846BD4680BC704780B582B000AF786026
:1028700039601FF0EBFA034616221A604FF0FF335F
:1028800018460837BD4680BD80B582B000AF78607D
:102890004FF0FF317868FFF7E7FF00BFFDE780B535
:1028A00086B000AFF860B9607A6000237B610AE00F
:1028B000AFF300800146BB685A1CBA60CAB21A70F6
:1028C0007B6901337B617A697B689A42F0DB7B68C4
:1028D00018461837BD4680BD80B586B000AFF86099
:1028E000B9607A6000237B6109E0BB685A1CBA605A
:1028F0001B781846FFF7ECF97B6901337B617A6935
:102900007B689A42F1DB7B6818461837BD4680BD6C
:1029100080B483B000AF78604FF0FF3318460C37B7
:10292000BD4680BC704780B483B000AF786039602A
:102930003B684FF400525A60002318460C37BD46DE
:1029400080BC704780B483B000AF78600123184624
:102950000C37BD4680BC704780B485B000AFF860CE
:10296000B9607A60002318461437BD4680BC7047B2
:1029700080B586B000AF7860144A154BD31A7B61DE
:102980007B693B61134B1B68002B02D1114B124A30
:102990001A60104B1A687B6813443A699A4207D24E
:1029A0001FF054FA03460C221A604FF0FF3309E07F
:1029B000084B1B68FB60074B1A687B681344054A89
:1029C0001360FB6818461837BD4680BD0000012023
:1029D000000400000C040020E828002080B400AFB0
:1029E00000BFBD4680BC704780B483B000AF786044
:1029F0007B689B6818460C37BD4680BC704700005A
:102A000080B582B000AF0023FB71144B1B7883F0BC
:102A10000103DBB2002B1BD0114B4FF0FF321A63C6
:102A2000FFF7EEFA00F056F84FF480710C4804F00E
:102A300053FE0B4B4FF0FF321A63094804F08AFF34
:102A4000002000F0D3F900F05FF8044B01221A7067
:102A5000FB7918460837BD4680BD00BF1004002032
:102A6000C403002080B58EB000AF7860002387F8E3
:102A7000373007F108032C22002118461FF05DF9BA
:102A800000F028F8114B1B687A6813447B60002320
:102A90007B627B68DB43FB600023FB614FF00053EC
:102AA0003B624FF480733B6307F108030122194630
:102AB000074804F005FD0346002B01D0FFF772FA2A
:102AC00097F8373018463837BD4680BD14040020CB
:102AD000C403002080B582B000AF0023FB71084B17
:102AE0000122DA654FF48071064804F0F5FD054BCC
:102AF0004FF0FF321A63FB7918460837BD4680BD98
:102B000000280040C403002080B500AF00F08EF91B
:102B10000346034A1360024B1B68184680BD00BF82
:102B20001404002080B400AF024B1B681846BD4659
:102B300080BC70471404002080B582B000AF002331
:102B40007B6000F073F90246044B1B68D31A7B606C
:102B50007B6818460837BD4680BD00BF14040020BE
:102B600080B582B000AF00237B60064B1B78002B42
:102B700002D000F05BF978607B6818460837BD46E4
:102B800080BD00BF1004002080B483B000AF0023DC
:102B90007B6003237B607B6818460C37BD4680BC96
:102BA0007047B0B584B000AF78600021F9607968F3
:102BB00000200A460346950D94024FF47A724FF0B6
:102BC000000320462946FEF7EBF902460B46134662
:102BD000FB60FB6818461037BD46B0BD2DE9B00F4D
:102BE00085B000AF78600021F960796800200C465C
:102BF0000546204629464FF0000A4FF0000B4FEAE9
:102C0000411B4BEAD06B4FEA401A50465946021B13
:102C100061EB05034FF000004FF00001990041EA1D
:102C20009271900002460B4612EB040843EB050933
:102C30004FF000024FF000034FEAC90343EA587314
:102C40004FEAC80290469946404649464FF0000276
:102C50004FF00003820A42EA81528B0A1346FB605E
:102C6000FB6818461437BD46BDE8B00F704780B505
:102C700084B000AF78607868FFF793FFF86000F0E9
:102C8000D5F8B86000E000BF00F0D0F80246BB689D
:102C9000D31AFA689A42F6D800BF00BF1037BD4673
:102CA00080BD80B582B000AF78601DF099FC00BF98
:102CB0000837BD4680BD80B584B000AF786000F0B5
:102CC000A5F8F860FB680133184600F08FF800BFE4
:102CD0001037BD4680BD2DE9B04F8CB000AF786194
:102CE0000023FB6200F0A2F8B86200F08FF878626F
:102CF0007B6A0022BB60FA604FF000024FF00003D5
:102D0000B9680B000022B96A00200C46054612EB98
:102D1000040843EB0509C7E90689D7E906014FF026
:102D200000024FF00003820A42EA81528B0A1346E6
:102D3000FB62BB6900223B607A603B68C3F3090A0F
:102D40004FF0000BC7E906ABBB691846FFF746FF1B
:102D500003469AB27B691A80FB6A18463037BD4633
:102D6000BDE8B08F80B582B000AF78607A6800218E
:102D7000034804F081FE00BF0837BD4680BD00BF98
:102D8000C403002080B582B000AF78607A6801216A
:102D9000034804F071FE00BF0837BD4680BD00BF88
:102DA000C403002080B582B000AF00237B60002107
:102DB000044804F079FE78607B6818460837BD4601
:102DC00080BD00BFC403002080B582B000AF0023E7
:102DD0007B600121044804F067FE78607B68184638
:102DE0000837BD4680BD00BFC403002080B582B057
:102DF00000AF78607A680221034804F03DFE00BF0E
:102E00000837BD4680BD00BFC403002080B582B036
:102E100000AF0221044804F047FE78607B68184642
:102E20000837BD4680BD00BFC403002080B582B016
:102E300000AF0B48FFF7D8FD786003E00848FFF7C4
:102E4000D3FD78600648FFF7CFFD02467B689342CA
:102E5000F4D17B68DB4318460837BD4680BD00BF10
:102E60000028004080B485B000AF78604FF0B043D8
:102E7000DA6C4FF0B0417B681343CB644FF0B04342
:102E8000DA6C7B681340FB60FB6800BF1437BD46FB
:102E900080BC704780B485B000AF78604FF0B0431D
:102EA000DA6D4FF0B0417B681343CB654FF0B04310
:102EB000DA6D7B681340FB60FB6800BF1437BD46CA
:102EC00080BC704780B483B000AF78604FF0B043EF
:102ED000DA6D7B68DB434FF0B0411340CB6500BF38
:102EE0000C37BD4680BC704780B485B000AF7860B9
:102EF0004FF0B0431A6E4FF0B0417B6813430B663E
:102F00004FF0B0431A6E7B681340FB60FB6800BF54
:102F10001437BD4680BC704780B483B000AF786082
:102F20004FF0B0431A6E7B68DB434FF0B041134063
:102F30000B6600BF0C37BD4680BC704780B500AF44
:102F4000224B234A1A60214B4FF4E1325A601F4B47
:102F500000229A601D4B0022DA601C4B00221A618D
:102F60001A4B0C225A61194B00229A61174B00220E
:102F70001A62164B00225A62144B00229A62134BBB
:102F800000225A66114805F084FA0346002B01D04E
:102F9000FFF708F800210D4807F030FC0346002B2E
:102FA00001D0FEF7FFFF0021084807F065FC03464B
:102FB000002B01D0FEF7F6FF044807F0E7FB0346BD
:102FC000002B01D0FEF7EEFF00BF80BD18040020EB
:102FD0000080004080B500AF234B244A1A60224B8A
:102FE0004FF416625A60204B00229A601E4B00225A
:102FF000DA601D4B4FF480621A611B4B0C225A6140
:10300000194B00229A61184B0022DA61164B0022FC
:103010001A62154B00225A62134B00229A62124820
:1030200005F037FA0346002B01D0FEF7BBFF002165
:103030000D4807F0E3FB0346002B01D0FEF7B2FF7B
:103040000021094807F018FC0346002B01D0FEF7C9
:10305000A9FF054807F09AFB0346002B01D0FEF7B5
:10306000A1FF00BF80BD00BFAC04002000380140BC
:1030700080B596B000AF786007F1440300221A6073
:103080005A609A60DA601A6107F10C033822002155
:1030900018461EF052FE7B681B687A4A934255D14F
:1030A0002023FB600023FB6107F10C03184604F0AA
:1030B0006BF80346002B01D0FEF774FF0120FFF7E9
:1030C000E9FE0420FFF7CEFE03237B640223BB64EA
:1030D0000023FB6400233B6508237B6507F1440361
:1030E0001946694802F06CFB684B694A1A60674BE5
:1030F00016225A60654B10229A60644B0022DA60F7
:10310000624B80221A61614B00225A615F4B0022A0
:103110009A615E4B0022DA615C4B00221A625B48C6
:1031200001F04AFD0346002B01D0FEF73BFF7B6810
:10313000564ADA67554A7B689362002200212620AE
:1031400001F003FD262001F01AFD96E07B681B6864
:10315000504A934240F091800123FB604FF440338A
:103160003B6107F10C03184604F00EF80346002BF0
:1031700001D0FEF717FF4FF48040FFF7B5FE0220A5
:10318000FFF770FE80237B640223BB640123FB6492
:1031900000233B6507237B6507F1440319463E483E
:1031A00002F00EFB40237B640223BB640023FB641C
:1031B00003233B6507237B6507F144031946364823
:1031C00002F0FEFA354B364A1A60344B11225A602F
:1031D000324B00229A60314B0022DA602F4B802262
:1031E0001A612E4B00225A612C4B00229A612B4B04
:1031F0000022DA61294B00221A62284801F0DCFC27
:103200000346002B01D0FEF7CDFE7B68234AC3F8AE
:103210008020224A7B689362224B234A1A60214B0A
:1032200012225A601F4B10229A601E4B0022DA6055
:103230001C4B80221A611B4B00225A61194B002241
:103240009A61184B0022DA61164B00221A62154867
:1032500001F0B2FC0346002B01D0FEF7A3FE7B6811
:10326000104ADA670F4A7B6893620022002124200B
:1032700001F06BFC242001F082FC00BF5837BD46F2
:1032800080BD00BF008000400008004840050020CD
:10329000080002400038014000040048A00500205A
:1032A0001C000240000600203000024080B582B0C1
:1032B00000AF78607B681B68184A93420FD10120E9
:1032C000FFF700FE0321164802F0DAFB7B68DB6F94
:1032D000184601F019FD262001F05FFC1AE07B681A
:1032E0001B68104A934215D14FF48040FFF714FE3B
:1032F000C0210D4802F0C4FB7B68D3F8803018462B
:1033000001F002FD7B68DB6F184601F0FDFC242014
:1033100001F043FC00BF0837BD4680BD008000407F
:1033200000080048003801400004004880B483B021
:1033300000AF78604FF0B043DA6B4FF0B0417B687C
:103340001343CB6300BF0C37BD4680BC704780B4CD
:1033500083B000AF78604FF0B043DA6B7B68DB433B
:103360004FF0B0411340CB6300BF0C37BD4680BC6B
:103370007047000080B483B000AF7860064BD3F88C
:10338000802005497B681343C1F8803000BF0C37AB
:10339000BD4680BC704700BF0008005880B582B0B1
:1033A00000AF7860074A7B681360FEF759F9FFF7B2
:1033B000C5FD4FF08050FFF7DDFF002318460837AA
:1033C000BD4680BD6406002080B500AF0120FFF738
:1033D000ADFF0120FFF7BBFF0448FFF767FF0F2099
:1033E00001F0DBFB0023184680BD00BF180400205D
:1033F00080B582B000AF78600B467B807B881A4630
:103400007968044805F068F9002318460837BD4676
:1034100080BD00BF1804002080B584B000AF786084
:10342000194A7B6813604FF40013BB6007F108036F
:1034300093E80600154807F01CF900BF134B1B6802
:10344000DB6903F48033B3F5803FF7D000BF0F4B47
:103450001B68DB6903F48003B3F5800FF7D10B4BD6
:103460001B689A68094B1B6842F480029A600748FF
:1034700007F05AF901220649044805F0E1F8002353
:1034800018461037BD4680BD68060020180400208D
:103490006006002080B500AF044801F08DFB0346B4
:1034A000002B01D0FEF77EFD00BF80BD400500204F
:1034B00080B582B000AF78607B681B68054A934294
:1034C00003D1054B1B680020984700BF0837BD4655
:1034D00080BD00BF008000406406002080B584B03D
:1034E00000AF78607B681B68374A934250D1374BF6
:1034F0001B889BB2B3F5FF7F35D8354B1B78DBB209
:10350000002B30D1314B1B889BB25A1C91B22F4AF1
:1035100011801A462F4B19782F4B99542B4B1B882F
:103520009BB21A462C4B002199542A4B1B78292B0D
:1035300019D1264B1B889BB20E2B14D9274926483C
:103540001EF028FCF860FB68002B0CD01F4B1B887A
:103550009BB2013B204A1A44FB6806339A4202D9C7
:103560001B4B01221A70194B1B889BB2B3F5FF7FCE
:1035700008D9164B00221A804FF400720021164819
:103580001EF0DBFB01221349154805F059F818E03D
:103590007B681B68134A934213D1134B1B68002BA3
:1035A0000AD07B68D3F89030002B05D10E4B1B68F6
:1035B000002201210D48984701220C49786805F046
:1035C0003FF81037BD4680BD00380140700800202C
:1035D000720800206C06002070060020A840020837
:1035E000AC04002000800040680600206006002037
:1035F0000D488546FFF7F2F90C480D490D4A0023A6
:1036000002E0D458C4500433C4188C42F9D30A4A97
:103610000A4C002301E013600432A242FBD31EF0E7
:103620001BFCFEF767FBFEE7000001200000002006
:1036300024030020A85B020824030020E8280020BF
:10364000FEE780B586B000AF3B1D00221A605A60CD
:103650009A60DA601A6110237B600123BB6000234B
:10366000FB6003233B613B1D19464FF0904002F085
:10367000A7F820237B603B1D19464FF0904002F0D5
:103680009FF8002220214FF0904002F0DEFA002245
:1036900010214FF0904002F0D8FA00231846183756
:1036A000BD4680BD80B582B000AF0346FB71FB799B
:1036B000032B3FD801A252F823F000BFCD360008FB
:1036C000E7360008013700081B37000800221021E8
:1036D0004FF0904002F0B9FA002220214FF09040C4
:1036E00002F0B3FA27E0012210214FF0904002F0DF
:1036F000ACFA002220214FF0904002F0A6FA1AE026
:10370000012210214FF0904002F09FFA0122202167
:103710004FF0904002F099FA0DE0002210214FF096
:10372000904002F092FA012220214FF0904002F0E6
:103730008CFA00E000BF002318460837BD4680BD64
:1037400080B400AF02231846BD4680BC704780B4E9
:1037500000AF01231846BD4680BC704780B400AF5F
:1037600001231846BD4680BC704780B485B000AFC9
:103770000346FB71FB79002B02D10F23FB6001E0B4
:103780001623FB60FB6818461437BD4680BC7047A3
:1037900080B400AF044B5B68034A23F0010353601D
:1037A00000BFBD4680BC7047002004E080B400AF7D
:1037B000044B5B68034A23F00203536000BFBD461D
:1037C00080BC7047002004E080B400AF044B5B680D
:1037D000034A23F00403536000BFBD4680BC70471A
:1037E000002004E080B582B000AF0023FB7103200D
:1037F00001F0A0F903F0EAFA0346094A13600F202A
:10380000FEF7C2FF0346002B02D00123FB7101E04B
:10381000FEF7BFFCFB7918460837BD4680BD00BFE8
:103820001400002080B400AF044B1B68034A23F04F
:103830000203136000BFBD4680BC704710E000E08B
:1038400080B400AF044B1B68034A43F002031360CB
:1038500000BFBD4680BC704710E000E080B400AF00
:10386000024B1B681846BD4680BC70479075FF1F11
:1038700080B400AF024B1B681846BD4680BC704741
:103880009475FF1F80B400AF024B1B681846BD46FD
:1038900080BC70479875FF1F80B500AFFFF778FFB9
:1038A00000BF80BD80B500AFFFF780FF00BF80BDC7
:1038B00080B500AFFFF788FF00BF80BD80B483B044
:1038C00000AF786039607B681B6823F0E0723B686A
:1038D0001A437B681A6000BF0C37BD4680BC704736
:1038E00080B483B000AF78607B681B6803F0E0733E
:1038F00018460C37BD4680BC704780B485B000AF19
:10390000F860B9607A60FB685A69BB6803F0040329
:10391000072101FA03F3DB431A40BB6803F00403F9
:10392000796801FA03F31A43FB685A6100BF143740
:10393000BD4680BC704780B483B000AF786039600A
:103940007B685A693B6803F00403072101FA03F31B
:103950001A403B6803F0040322FA03F318460C37BD
:10396000BD4680BC704780B483B000AF78607B6890
:10397000DB6803F44063002B01D1012300E0002346
:1039800018460C37BD4680BC704780B485B000AF88
:10399000F860B9607A60FB689A6ABB6803F01F033D
:1039A0000F2101FA03F3DB431A407B689B0E03F0FF
:1039B0000F01BB6803F01F0301FA03F31A43FB680E
:1039C0009A6200BF1437BD4680BC704780B483B094
:1039D00000AF786039607B689A6A3B68C3F3110373
:1039E0001A437B689A6200BF0C37BD4680BC7047A3
:1039F00080B483B000AF786039607B689A6A3B68B6
:103A0000C3F31103DB431A407B689A6200BF0C3793
:103A1000BD4680BC704780B485B000AFF860B96027
:103A20007A60FB685A69BB681B02DB431A40BB68BB
:103A300019027B680B4023F07C4323F0FF031A43F9
:103A4000FB685A6100BF1437BD4680BC704780B424
:103A500083B000AF78607B689B6823F0104323F04D
:103A6000170343F080527B689A6000BF0C37BD4655
:103A700080BC704780B483B000AF78607B689B687F
:103A800023F0104323F017037A68936000BF0C37CC
:103A9000BD4680BC704780B483B000AF78607B685F
:103AA0009B6803F08053B3F1805F01D1012300E0F4
:103AB000002318460C37BD4680BC704780B483B0E5
:103AC00000AF78607B689B6823F0004323F0170306
:103AD00043F001027B689A6000BF0C37BD4680BC92
:103AE000704780B483B000AF78607B689B6823F038
:103AF000004323F0170343F002027B689A6000BF83
:103B00000C37BD4680BC704780B483B000AF78608E
:103B10007B689B6803F00103012B01D1012300E0C6
:103B2000002318460C37BD4680BC704780B483B074
:103B300000AF78607B689B6803F00203022B01D121
:103B4000012300E0002318460C37BD4680BC7047B7
:103B500080B483B000AF78607B689B6823F000433B
:103B600023F0170343F004027B689A6000BF0C3710
:103B7000BD4680BC704780B483B000AF78607B687E
:103B80009B6823F0004323F0170343F010027B6887
:103B90009A6000BF0C37BD4680BC704780B483B0CC
:103BA00000AF78607B689B6803F00403042B01D1AD
:103BB000012300E0002318460C37BD4680BC704747
:103BC00080B588B000AF78600023FB770023BB612D
:103BD00000237B610023FB607B68002B01D1012364
:103BE0007EE17B681B69002B7B689B6D002B09D1F4
:103BF0007868FDF713FC7B680022DA657B68002299
:103C000083F854207B681B681846FFF744FF03467F
:103C1000002B15D17B681B681846FFF718FF9E4BD9
:103C20001B689B099D4AA2FB03239B0901335B0090
:103C3000FB6002E0FB68013BFB60FB68002BF9D1F5
:103C40007B681B681846FFF726FF0346002B0DD143
:103C50007B689B6D43F010027B689A657B68DB6D27
:103C600043F001027B68DA650123FB777B681B6800
:103C70001846FFF793FF38617B689B6D03F01003D4
:103C8000002B40F024813B69002B40F020817B68B1
:103C90009B6D23F4817343F002027B689A657B6815
:103CA0001B681846FFF730FF0346002B40F0A78043
:103CB0007B689A687B681B7E9B031A437B685B7EEC
:103CC000DB031A437B689B7E5B0313437A68126BAA
:103CD000002A02D04FF4805200E000221A437B6891
:103CE000DB681A437B681B69002B04DA7B681B695D
:103CF00023F0004301E04FF400131A437B6893F86C
:103D00002C305B001343BA691343BB617B6893F8A3
:103D10002030012B14D17B689B7E002B04D1BB6922
:103D200043F48033BB610BE07B689B6D43F0200262
:103D30007B689A657B68DB6D43F001027B68DA651E
:103D40007B685B6A002B09D07B685B6A03F4E072D6
:103D50007B689B6A1343BA691343BB617B681B682A
:103D6000DB6823F4FE3323F4FF737A681268B969C1
:103D70000B43D3607B685B6803F040427B68DB6C7D
:103D800013437A6913437B617B6893F83C30012BC2
:103D900011D17B685B6803F040427B681B6C1A435F
:103DA0007B685B6C1A437B689B6C1A437B6913438B
:103DB00043F001037B617B681B681A69384B134031
:103DC0007A68126879690B4313617B685B68B3F1A9
:103DD000404F14D07B685B68B3F1804F0FD07B6895
:103DE0005B68B3F1004F0AD02E4B1B6823F47012AE
:103DF0007B685B6803F470132A4913430B607B688C
:103E000018687B685B6B1A460021FFF776FD7B68BC
:103E100018687B689B6B1A462349FFF76EFD7B6829
:103E20001B69002B08D17B681B689A6A7B681B683A
:103E300062F00F029A6217E07B681B69B3F5001FFE
:103E400012D17B681B689B6A7B68DB69013B9B0026
:103E500003F01C036FF00F0202FA03F17B681A6E85
:103E60007B681B680A439A627B681B6800211846BE
:103E7000FFF761FD02467B685B6B9A4216D17B6857
:103E80000022DA657B689B6D23F0030343F0010297
:103E90007B689A6523E000BF14000020632D3E0577
:103EA00002FCFF1F0827014004FFFF037B689B6D96
:103EB00023F0120343F010027B689A657B68DB6D88
:103EC00043F001027B68DA650123FB7707E07B683A
:103ED0009B6D43F010027B689A650123FB77FB7FA3
:103EE00018462037BD4680BD80B584B000AF7860ED
:103EF0007B68002B01D101237AE07B689B6D43F046
:103F000002027B689A65786800F0CEFA0346FB737C
:103F1000FB7B002B0FD1786800F092FB0346FB730C
:103F2000FB7B002B02D17B6801229A657B681B68B2
:103F30001846FFF79FFD7B681B685B687A6812680C
:103F400023F4677323F0030353607B681B6840F21C
:103F50009F321A607B681B68D9687B681A68264B99
:103F60000B40D3607B681B685A697B681B6822F032
:103F700007025A617B681B689B6A7B681B6800228A
:103F80009A627B681B681A6A7B681B6802F0F022E1
:103F90001A627B681B685A6A7B681B6802F0F02211
:103FA0005A627B681B68DA6A7B681B6802F0F02241
:103FB000DA627B681B681A697B681B6822F04042E2
:103FC0001A610E4B1B680D4A23F0FE73136078686C
:103FD000FDF750FA7B6800221A667B680022DA65DA
:103FE0007B6800229A657B68002283F85420FB7B63
:103FF00018461037BD4680BD00023E8308270140A9
:1040000080B584B000AF78607B681B681846FFF706
:10401000C5FD0346002B32D17B6893F85430012B49
:1040200001D102232EE07B68012283F854207868B6
:1040300000F080FA0346FB73FB7B002B1AD17B68F0
:104040009B6D23F4706323F0010343F480727B685B
:104050009A657B680022DA657B681B681C221A60FF
:104060007B68002283F854207B681B681846FFF7A2
:104070006FFD06E07B68002283F8542001E00223F4
:10408000FB73FB7B18461037BD4680BD80B584B0FE
:1040900000AF78607B6893F85430012B01D1022384
:1040A00022E07B68012283F85420786800F0FCF954
:1040B0000346FB73FB7B002B11D1786800F0C0FA3C
:1040C0000346FB73FB7B002B09D17B689B6D23F4BC
:1040D000807323F0010343F001027B689A657B68DB
:1040E000002283F85420FB7B18461037BD4680BD64
:1040F00080B584B000AF786039607B685B69082B5D
:1041000002D10823FB6010E07B681B68DB6803F0CA
:104110000103002B07D07B689B6D43F020027B6876
:104120009A65012377E00423FB60FEF737FBB86054
:1041300021E03B68B3F1FF3F1DD0FEF72FFB0246A5
:10414000BB68D31A3A689A4202D33B68002B12D15B
:104150007B681B681A68FB681340002B0BD17B68D7
:104160009B6D43F004027B689A657B68002283F8AC
:10417000542003234FE07B681B681A68FB681340D8
:10418000002BD6D07B689B6D43F400727B689A65E8
:104190007B681B681846FFF7E6FB0346002B31D00F
:1041A0007B689B7E002B2DD17B681B681B6803F00E
:1041B0000803082B26D17B681B681846FFF7EEFC26
:1041C0000346002B12D17B681B685A687B681B680A
:1041D00022F00C025A607B689B6D23F4807323F0FD
:1041E000010343F001027B689A650BE07B689B6DDD
:1041F00043F020027B689A657B68DB6D43F0010227
:104200007B68DA657B681B7E002B03D17B681B68AB
:104210000C221A60002318461037BD4680BD80B4BA
:1042200083B000AF78607B681B681B6C18460C3746
:10423000BD4680BC7047000080B588B000AF786094
:1042400039600023FB770023BB607B681B69B3F1F7
:10425000004F7B6893F85430012B01D1022310E109
:104260007B68012283F854207B681B681846FFF79F
:1042700095FC0346002B40F0F7803B685B68022BFF
:1042800000F0B1807B681B69B3F1004F04D07B68FC
:104290001B697E4A934208D17B681A683B681B6899
:1042A00019461046FFF792FB41E07B681A6E3B68A7
:1042B0005B6803F01F030F2101FA03F3DB431A408D
:1042C0003B681B68C3F31103002B05D13B681B68D7
:1042D0009B0E03F01F0311E03B681B683B613B69C9
:1042E00093FAA3F3FB60FB687B617B69002B01D130
:1042F000202303E07B69B3FA83F3DBB239684968B2
:1043000001F01F018B401A437B681A663B685B68AB
:104310009B085A1C7B68DB699A4208D87B6818683E
:104320003B6859683B681B681A46FFF72EFB7B68A1
:1043300018683B6819683B689B681A46FFF76BFB77
:104340003B681B68002B80F297805148FFF7C8FA42
:10435000B8613B681B684F4A934220D1BB6903F4A4
:104360000003002B1BD1BB6943F4000319464848E6
:10437000FFF7A4FA484B1B689B09484AA2FB03239A
:104380009B095A1C13465B0013449B00BB6002E070
:10439000BB68013BBB60BB68002BF9D16CE03B689C
:1043A0001B683F4A93420CD1BB6903F08073002B1A
:1043B00007D1BB6943F0807319463548FFF77EFA91
:1043C0005AE03B681B68374A934255D1BB6903F4F6
:1043D0008003002B50D1BB6943F4800319462C485D
:1043E000FFF76CFA48E07B681B69B3F1004F04D01B
:1043F0007B681B69254A934207D17B681A683B6832
:104400001B6819461046FFF7F3FA3B681B68002B40
:1044100032DA1F48FFF764FAB8613B681B681D4A2F
:10442000934207D1BB6923F4000319461848FFF7EC
:1044300045FA21E03B681B68194A934207D1BB69E2
:1044400023F0807319461248FFF738FA14E03B68EE
:104450001B68144A93420FD1BB6923F480031946A9
:104460000B48FFF72BFA07E07B689B6D43F02002B7
:104470007B689A650123FB777B68002283F85420D0
:10448000FB7F18462037BD4680BD00BF040000807A
:1044900008270140001000B014000020632D3E05E5
:1044A000004000B8002000B480B584B000AF786050
:1044B0007B681B681846FFF771FB0346002B33D05F
:1044C0007B681B681846FFF731FB0346002B04D1BD
:1044D0007B681B681846FFF74EFBFEF75FF9F86034
:1044E0001BE0FEF75BF90246FB68D31A022B14D9D6
:1044F0007B681B689B6803F00403002B0DD07B686E
:104500009B6D43F010027B689A657B68DB6D43F01E
:1045100001027B68DA65012307E07B681B689B6802
:1045200003F00403002BDCD1002318461037BD46EE
:1045300080BD000080B584B000AF78600023BB6010
:104540007B681B681846FFF7DFFA0346002B69D12A
:104550007B681B689A68364B1340002B0DD07B6834
:104560009B6D43F010027B689A657B68DB6D43F0BE
:1045700001027B68DA65012355E07B681B681846F9
:10458000FFF79CFA2B48FFF7ABF9034603F400034F
:10459000002B0FD0284B1B689B09284AA2FB032342
:1045A0009B090133BB6002E0BB68013BBB60BB6899
:1045B000002BF9D17B685B7E012B33D0FEF7EEF840
:1045C000F86028E07B681B681846FFF79DFA0346F1
:1045D000002B04D17B681B681846FFF76FFAFEF7C3
:1045E000DDF80246FB68D31A022B14D97B681B68DE
:1045F0001B6803F00103012B0DD07B689B6D43F01A
:1046000010027B689A657B68DB6D43F001027B6872
:10461000DA65012307E07B681B681B6803F0010370
:10462000012BCFD1002318461037BD4680BD00BFF7
:10463000170000800827014014000020632D3E056C
:1046400080B584B000AF78607B681B681846FFF7C0
:104650006DFAF8607B681B681846FFF755FA034649
:10466000002B47D0FB68002B44D17B681B689B68FC
:1046700003F00503012B0CD17B681B681846FFF77C
:1046800030FA7B681B6803221A60FEF787F8B8606F
:1046900029E07B689B6D43F010027B689A657B681C
:1046A000DB6D43F001027B68DA65012323E0FEF74E
:1046B00075F80246BB68D31A022B14D97B681B68B5
:1046C0009B6803F00103002B0DD07B689B6D43F0CA
:1046D00010027B689A657B68DB6D43F001027B68A2
:1046E000DA65012307E07B681B689B6803F0010320
:1046F000002BDCD1002318461037BD4680BD80B4A6
:1047000083B000AF786039607B68D3F8B43023F0B1
:104710007F023B681A437B68C3F8B42000BF0C37A4
:10472000BD4680BC704780B483B000AF78607B68C2
:10473000D3F8B43003F07F0318460C37BD4680BC75
:10474000704780B483B000AF78607B689B6823F0CB
:10475000004323F0170343F001027B689A6000BF17
:104760000C37BD4680BC704780B483B000AF786022
:104770007B689B6823F0004323F0170343F0020299
:104780007B689A6000BF0C37BD4680BC704780B420
:1047900083B000AF78607B689B6803F00103012B56
:1047A00001D1012300E0002318460C37BD4680BC30
:1047B000704780B483B000AF78607B689B6823F05B
:1047C000004323F0170343F000427B689A6000BF68
:1047D0000C37BD4680BC704780B483B000AF7860B2
:1047E0007B689B6803F00043B3F1004F01D10123C4
:1047F00000E0002318460C37BD4680BC704780B5EA
:1048000088B000AF78600023BB600023BB617B6889
:1048100093F85430012B01D10223B9E07B680122C7
:1048200083F854207868FFF70BFF0346FB757B681D
:104830001B681846FFF7ABFF0346002B40F09D8036
:104840007B689B6D23F4817343F002027B689A6559
:104850007B681B68DA6848F2030313403B617B689E
:104860001B68DB687A68126823F4004323F00303B3
:10487000D3600023FB612EE07B681B681846FFF7BE
:1048800098FF14E0BB680133BB60BB68B3F52E3FF3
:104890000DD37B689B6D23F0120343F010027B68FD
:1048A0009A657B68002283F85420012370E07B68BE
:1048B0001B681846FFF790FF0346002BE2D17B6888
:1048C0001B681846FFF72FFF0246BB691344BB6104
:1048D000FB690133FB61FB69072BCDD9BA69FB6921
:1048E000B2FBF3F3BB617B681B681846FFF729FF37
:1048F0007B681B68B9691846FFF701FF7B681B6876
:104900001846FFF731FFFDF749FFF8601CE0FDF79F
:1049100045FF0246FB68D31A022B15D97B681B683A
:104920001846FFF734FF0346002B0DD07B689B6DC4
:1049300043F010027B689A657B68DB6D43F00102EF
:104940007B68DA65012323E07B681B681846FFF764
:104950001EFF0346002BDAD17B681B68D9687B6891
:104960001B683A690A43DA607B689B6D23F0030396
:1049700043F001027B689A6505E07B689B6D43F01C
:1049800010027B689A657B68002283F85420FB7DC7
:1049900018462037BD4680BD80B485B000AF786032
:1049A0007B6803F00703FB600C4BDB68BB60BA68F5
:1049B0004FF6FF031340BB60FB681A02BB6813434A
:1049C00043F0BF6343F40033BB60044ABB68D36069
:1049D00000BF1437BD4680BC704700BF00ED00E04B
:1049E00080B400AF044BDB681B0A03F007031846D2
:1049F000BD4680BC704700BF00ED00E080B483B0CE
:104A000000AF0346FB7197F90730002B0BDBFB79F6
:104A100003F01F02064997F907305B09012000FAED
:104A200002F241F8232000BF0C37BD4680BC70471E
:104A300000E100E080B483B000AF0346FB7197F95A
:104A40000730002B12DBFB7903F01F020A4997F9AC
:104A500007305B09012000FA02F2203341F82320DD
:104A6000BFF34F8F00BFBFF36F8F00BF00BF0C3786
:104A7000BD4680BC704700BF00E100E080B483B059
:104A800000AF03463960FB7197F90730002B0ADB52
:104A90003B68DAB20C4997F907301201D2B20B44E5
:104AA00083F800230AE03B68DAB20849FB7903F097
:104AB0000F03043B1201D2B20B441A7600BF0C372D
:104AC000BD4680BC704700BF00E100E000ED00E0A3
:104AD00080B489B000AFF860B9607A60FB6803F019
:104AE0000703FB61FB69C3F10703042B28BF042301
:104AF000BB61FB690433062B02D9FB69033B00E071
:104B000000237B614FF0FF32BB6902FA03F3DA4303
:104B1000BB681A407B699A404FF0FF317B6901FA0C
:104B200003F3D9437B680B40134318462437BD4633
:104B300080BC704780B582B000AF78607868FFF7BE
:104B40002BFF00BF0837BD4680BD80B586B000AFE3
:104B50000346B9607A60FB73FFF742FF78617A68B9
:104B6000B9687869FFF7B4FF024697F90F3011462C
:104B70001846FFF783FF00BF1837BD4680BD80B5DC
:104B800082B000AF0346FB7197F907301846FFF774
:104B900035FF00BF0837BD4680BD80B582B000AF8D
:104BA0000346FB7197F907301846FFF743FF00BF34
:104BB0000837BD4680BD000080B582B000AF786088
:104BC0007B68002B01D101238EE07B681B681A46AD
:104BD000474B9A420FD87B681B681A46454B1344D3
:104BE000454AA2FB03231B099A007B685A647B6831
:104BF000424A1A640EE07B681B681A46404B134415
:104C00003D4AA2FB03231B099A007B685A647B6818
:104C10003C4A1A647B68022283F825207B681B6863
:104C20001B687A68126823F4FF4323F07003136053
:104C30007B681B6819687B689A687B68DB681A4325
:104C40007B681B691A437B685B691A437B689B69B5
:104C50001A437B68DB691A437B681B6A1A437B68CB
:104C60001B680A431A60786800F024FB7B689B6825
:104C7000B3F5804F02D17B6800225A607B685A6886
:104C80007B689B6C02F07F021A607B68DB6C7A6841
:104C9000126D5A607B685B68002B10D07B685B6884
:104CA000042B0CD8786800F04DFB7B685B6D00220C
:104CB0001A607B689B6D7A68D26D5A6008E07B68E9
:104CC00000225A657B6800229A657B680022DA65BB
:104CD0007B680022DA637B68012283F825207B68E9
:104CE000002283F82420002318460837BD4680BDE3
:104CF00007040240F8FFFDBFCDCCCCCC0000024041
:104D0000F8FBFDBF0004024080B582B000AF7860C0
:104D10007B68002B01D101237BE07B681B681A684C
:104D20007B681B6822F001021A607B681B681A46C8
:104D30003A4B9A420FD87B681B681A46384B13448B
:104D4000384AA2FB03231B099A007B685A647B68DC
:104D5000354A1A640EE07B681B681A46334B1344CD
:104D6000304AA2FB03231B099A007B685A647B68C4
:104D70002F4A1A647B681B6800221A607B685B6C90
:104D800003F01C027B681B6C012101FA02F25A60DD
:104D9000786800F08FFA7B689B6C00221A607B6851
:104DA000DB6C7A68126D5A607B685B68002B0FD0F1
:104DB0007B685B68042B0BD8786800F0C3FA7B68CB
:104DC0005B6D00221A607B689B6D7A68D26D5A60B9
:104DD0007B6800225A657B6800229A657B68002206
:104DE000DA657B680022DA627B6800221A637B68DE
:104DF00000225A637B6800229A637B680022DA6390
:104E00007B68002283F825207B68002283F8242019
:104E1000002318460837BD4680BD00BF0704024086
:104E2000F8FFFDBFCDCCCCCC00000240F8FBFDBFAD
:104E30000004024080B586B000AFF860B9607A60C7
:104E40003B600023FB75FB6893F82430012B01D1F4
:104E5000022369E0FB68012283F82420FB6893F8B1
:104E60002530DBB2012B55D1FB68022283F82520C7
:104E7000FB680022DA63FB681B681A68FB681B6822
:104E800022F001021A603B687A68B968F86800F09D
:104E9000D3F9FB681B6B002B08D0FB681B681A68F2
:104EA000FB681B6842F00E021A600FE0FB681B688B
:104EB0001A68FB681B6822F004021A60FB681B6812
:104EC0001A68FB681B6842F00A021A60FB689B6C58
:104ED0001B6803F48033002B07D0FB689B6C1A68B7
:104EE000FB689B6C42F480721A60FB685B6D002B60
:104EF00007D0FB685B6D1A68FB685B6D42F48072DB
:104F00001A60FB681B681A68FB681B6842F00102A4
:104F10001A6008E0FB688022DA63FB68002283F8ED
:104F200024200123FB75FB7D18461837BD4680BD44
:104F300080B483B000AF78607B68002B01D101237F
:104F40004FE07B6893F82530DBB2022B08D07B68FA
:104F50000422DA637B68002283F82420012340E0E6
:104F60007B681B681A687B681B6822F00E021A6057
:104F70007B689B6C1A687B689B6C22F480721A6059
:104F80007B681B681A687B681B6822F001021A6044
:104F90007B685B6C03F01C027B681B6C012101FACF
:104FA00002F25A607B68DB6C7A68126D5A607B682B
:104FB0005B6D002B0CD07B685B6D1A687B685B6D4A
:104FC00022F480721A607B689B6D7A68D26D5A6099
:104FD0007B68012283F825207B68002283F8242047
:104FE000002318460C37BD4680BC704780B584B09E
:104FF00000AF78600023FB737B6893F82530DBB249
:10500000022B05D07B680422DA630123FB7347E09F
:105010007B681B681A687B681B6822F00E021A60A6
:105020007B681B681A687B681B6822F001021A60A3
:105030007B689B6C1A687B689B6C22F480721A6098
:105040007B685B6C03F01C027B681B6C012101FA1E
:1050500002F25A607B68DB6C7A68126D5A607B687A
:105060005B6D002B0CD07B685B6D1A687B685B6D99
:1050700022F480721A607B689B6D7A68D26D5A60E8
:105080007B68012283F825207B68002283F8242096
:105090007B689B6B002B03D07B689B6B7868984781
:1050A000FB7B18461037BD4680BD000080B584B03C
:1050B00000AF78607B681B6C1B68FB607B681B68BB
:1050C0001B68BB607B685B6C03F01C0304229A4086
:1050D000FB681340002B27D0BB6803F00403002BB0
:1050E00022D07B681B681B6803F02003002B07D1CC
:1050F0007B681B681A687B681B6822F004021A60D0
:105100007B685B6C03F01C027B681B6C042101FA5A
:1051100002F25A607B681B6B002B00F081807B6879
:105120001B6B786898477BE07B685B6C03F01C0323
:1051300002229A40FB681340002B3DD0BB6803F06D
:105140000203002B38D07B681B681B6803F0200328
:10515000002B0BD17B681B681A687B681B6822F0E8
:105160000A021A607B68012283F825207B681B688D
:105170001A462E4B9A4209D97B685B6C03F01C03DC
:105180002B4A022101FA03F3536008E07B685B6C51
:1051900003F01C03274A022101FA03F353607B68E2
:1051A000002283F824207B68DB6A002B38D07B68E0
:1051B000DB6A7868984733E07B685B6C03F01C031C
:1051C00008229A40FB681340002B2AD0BB6803F0EA
:1051D0000803002B25D07B681B681A687B681B6856
:1051E00022F00E021A607B685B6C03F01C027B6885
:1051F0001B6C012101FA02F25A607B680122DA631A
:105200007B68012283F825207B68002283F8242014
:105210007B685B6B002B04D07B685B6B786898477E
:1052200000BF00BF1037BD4680BD00BF80000240F8
:10523000000402400000024080B485B000AFF86076
:10524000B9607A603B60FB68DB6CFA68126D5A608B
:10525000FB685B6D002B04D0FB689B6DFA68D26D18
:105260005A60FB685B6C03F01C02FB681B6C01213D
:1052700001FA02F25A60FB681B683A685A60FB68E0
:105280009B68102B08D1FB681B687A689A60FB68E2
:105290001B68BA68DA6007E0FB681B68BA689A6046
:1052A000FB681B687A68DA6000BF1437BD4680BCB3
:1052B0007047000080B485B000AF78607B681B68E1
:1052C0001A461C4B9A4213D87B685B6C9B089B0068
:1052D00003F1804303F502337A6893647B681B68AB
:1052E000DBB2083B144AA2FB03231B09FB6011E05D
:1052F0007B685B6C9B089A00104B13447A6893643C
:105300007B681B68DBB2083B0B4AA2FB03231B092B
:105310000733FB607B680A4ADA64FB6803F01F030B
:1053200001229A407B681A6500BF1437BD4680BCD5
:10533000704700BF07040240CDCCCCCC1C08024013
:105340008008024080B485B000AF78607B685B68FD
:1053500003F07F03FB60FA680A4B13449B001A4674
:105360007B685A657B68084A9A65FB68013B03F0D5
:10537000030301229A407B68DA6500BF1437BD46FB
:1053800080BC70473F8200104009024080B586B063
:1053900000AFF860B960C7E900231C4B1B78012BF4
:1053A00001D102232DE0194B01221A70174B002264
:1053B0005A604FF47A7000F069F80346FB75FB7D84
:1053C000002B1AD1FB68012B05D1D7E90023B8685F
:1053D00000F0BEF804E03B681946B86800F0DEF85B
:1053E0004FF47A7000F052F80346FB75084B5A6987
:1053F000FB68DB43064913404B61044B00221A70E3
:10540000FB7D18461837BD4680BD00BF74080020DC
:105410000040005880B483B000AF0023FB710B4BF9
:105420005B69002B0BDA094B094A9A60074B094A62
:105430009A60064B5B69002B01DA0123FB71FB7953
:1054400018460C37BD4680BC704700BF004000586E
:1054500023016745AB89EFCD80B483B000AF002353
:10546000FB71094B5B69084A43F000435361064BEB
:105470005B69002B01DB0123FB71FB7918460C37BC
:10548000BD4680BC704700BF0040005880B584B066
:1054900000AF7860FDF782F9F86009E0FDF77EF96A
:1054A0000246FB68D31A7A689A4201D8032346E081
:1054B000254B1B6903F48033B3F5803FEED0224BBC
:1054C0001B69BB60BB6803F00103002B02D01E4BBD
:1054D00001221A61BA684CF2FA331340BB60BB6810
:1054E000B3F1804F07D3184B9A69BB6803F0404370
:1054F000154913438B61BB6823F04043002B04D054
:10550000114ABB6823F040431361BB68002B0ED0E7
:105510000E4ABB685360012311E0FDF73FF90246D4
:10552000FB68D31A7A689A4201D8032307E0064B36
:105530001B6903F48023B3F5802FEED000231846B7
:105540001037BD4680BD00BF0040005874080020E1
:1055500080B485B000AFF860C7E900230E4B5B69EB
:105560000D4A43F001035361FB683A681A60BFF3C8
:105570006F8F00BFD7E900014FF000024FF000032A
:105580000A000023F968043113460B6000BF14378A
:10559000BD4680BC704700BF0040005880B489B051
:1055A00000AF786039604023FB777B68BB613B6864
:1055B0007B61184B5B69174A43F480235361EFF317
:1055C0001083FB60FB683B6172B600BF7B691A68A1
:1055D000BB691A60BB690433BB617B6904337B61BF
:1055E000FB7F013BFB77FB7F002BEFD100BF094B1B
:1055F0001B6903F48033B3F5803FF8D03B69BB608F
:10560000BB6883F3108800BF00BF2437BD4680BC51
:10561000704700BF0040005880B584B000AF78608C
:105620003960284B1B78012B01D1022346E0254B22
:1056300001221A70234B00225A604FF47A70FFF750
:1056400025FF0346FB73FB7B002B33D17B681B6874
:10565000042B08D100F038F84FF47A70FFF716FFEA
:105660000346FB7324E03B684FF0FF321A607B680F
:105670005B68BB6012E0B86800F036F84FF47A70EF
:10568000FFF704FF0346FB73FB7B002B03D03B6853
:10569000BA681A600AE0BB680133BB607B685A686D
:1056A0007B689B681344BA689A42E4D300F078F8A8
:1056B00000F032F8034B00221A70FB7B18461037BB
:1056C000BD4680BD7408002080B400AF054B5B6907
:1056D000044A43F4803343F00403536100BFBD46E2
:1056E00080BC70470040005880B483B000AF786041
:1056F000084B5B6923F47E727B68DB001343054A29
:1057000043F4803343F00203536100BF0C37BD46BE
:1057100080BC70470040005880B400AF1F4B1B682E
:1057200003F40073012B17D11C4B1B681B4A23F495
:1057300000731360194B1B68184A43F4006313602D
:10574000164B1B68154A23F400631360134B1B6848
:10575000124A43F400731360104B1B6803F4806318
:10576000012B17D10D4B1B680C4A23F48063136087
:105770000A4B1B68094A43F480531360074B1B68AC
:10578000064A23F480531360044B1B68034A43F416
:105790008063136000BFBD4680BC70470040005866
:1057A00080B400AF054B5B69044A23F47E7323F099
:1057B0000203536100BFBD4680BC704700400058E3
:1057C00080B487B000AF7860396000237B6140E12E
:1057D0003B681A6801217B6901FA03F31340FB60FF
:1057E000FB68002B00F032813B685B6803F0030329
:1057F000012B05D03B685B6803F00303022B30D11B
:105800007B689B683B617B695B00032202FA03F3C0
:10581000DB433A6913403B613B68DA687B695B00B4
:1058200002FA03F33A6913433B617B683A699A6071
:105830007B685B683B6101227B6902FA03F3DB430F
:105840003A6913403B613B685B681B0903F0010246
:105850007B6902FA03F33A6913433B617B683A6957
:105860005A603B685B6803F00303032B17D07B6827
:10587000DB683B617B695B00032202FA03F3DB43D5
:105880003A6913403B613B689A687B695B0002FAA6
:1058900003F33A6913433B617B683A69DA603B681A
:1058A0005B6803F00303022B23D17B69DA087B6872
:1058B000083253F822303B617B6903F007039B00F9
:1058C0000F2202FA03F3DB433A6913403B613B6862
:1058D0001A697B6903F007039B0002FA03F33A6934
:1058E00013433B617B69DA087B680832396943F806
:1058F00022107B681B683B617B695B00032202FA14
:1059000003F3DB433A6913403B613B685B6803F098
:1059100003027B695B0002FA03F33A6913433B61BC
:105920007B683A691A603B685B6803F44033002B7C
:1059300000F08C804E4A7B699B08023352F823307A
:105940003B617B6903F003039B00072202FA03F328
:10595000DB433A6913403B617B68B3F1904F0DD054
:105960007B68444A934207D07B68434A934201D103
:10597000022304E0072302E0012300E000237A6908
:1059800002F00302920093403A6913433B613849A5
:105990007B699B0802333A6941F82320374B1B6827
:1059A0003B61FB68DB433A6913403B613B685B68E2
:1059B00003F48013002B03D03A69FB6813433B6167
:1059C0002E4A3B6913602D4B5B683B61FB68DB43F0
:1059D0003A6913403B613B685B6803F40013002B9A
:1059E00003D03A69FB6813433B61244A3B69536027
:1059F000224BD3F880303B61FB68DB433A691340AC
:105A00003B613B685B6803F48033002B03D03A6949
:105A1000FB6813433B61194A3B69C2F88030174B5E
:105A2000D3F884303B61FB68DB433A6913403B6148
:105A30003B685B6803F40033002B03D03A69FB68D2
:105A400013433B610D4A3B69C2F884307B690133E3
:105A50007B613B681A687B6922FA03F3002B7FF4B1
:105A6000B7AE00BF00BF1C37BD4680BC704700BF4B
:105A700000000140000400480008004800080058E9
:105A800080B487B000AF7860396000237B61AFE0FD
:105A900001227B6902FA03F33A6813403B613B69D8
:105AA000002B00F0A280594A7B699B08023352F810
:105AB0002330FB607B6903F003039B00072202FA9B
:105AC00003F3FA681340FB607B68B3F1904F0DD08D
:105AD0007B684F4A934207D07B684E4A934201D17C
