:020000040800F2
:100000000000012079350008EB200008F3200008EB
:10001000FB200008032100080B210008000000005D
:100020000000000000000000000000001321000894
:100030001F210008000000002B21000837210008C4
:10004000C9350008C935000845210008C935000830
:10005000C9350008C9350008C9350008C935000888
:10006000C9350008C9350008C935000859210008FC
:100070006D21000881210008C9350008C935000834
:10008000C9350008C9350008C9350008C935000858
:1000900000000000C9350008C9350008C93500084E
:1000A000C9350008C9350008C9350008C935000838
:1000B000C9350008C9350008C9350008C935000828
:1000C000C9350008C9350008C9350008C935000818
:1000D00095210008C9350008A9210008C935000884
:1000E000C9350008BD210008D5210008C935000820
:1000F000C93500080000000000000000C9350008F4
:10010000C9350008C9350008E9210008C9350008CB
:10011000C9350008C9350008C9350008C9350008C7
:10012000C9350008C9350008C9350008C9350008B7
:08013000C9350008C9350008BB
:1001400010B5054C237833B9044B13B10448AFF311
:1001500000800123237010BD240300200000000054
:100160009808020808B5034B1BB103490348AFF3D5
:10017000008008BD00000000280300209808020845
:10018000034613F8012B002AFBD1181A01387047D7
:1001900001F0FF01102A2BDB10F0070F08D010F838
:1001A000013B013A8B422DD010F0070F42B3F6D13C
:1001B000F0B441EA012141EA014122F007047FF055
:1001C00000070023F0E80256083C85EA010586EAAC
:1001D000010685FA47F5A3FA87F586FA47F6A5FAE8
:1001E00087F68EB9EED1F0BC01F0FF0102F00702F4
:1001F00032B110F8013B013A83EA010313B1F8D19F
:100200000020704701387047002D06BF354603387F
:10021000073815F0010F07D1013015F4807F02BFB8
:10022000013015F4C03F0130F0BC0138704700BF09
:1002300081F0004102E000BF83F0004330B54FEA97
:1002400041044FEA430594EA050F08BF90EA020F04
:100250001FBF54EA000C55EA020C7FEA645C7FEA97
:10026000655C00F0E2804FEA5454D4EB5555B8BFBA
:100270006D420CDD2C4480EA020281EA030382EA2B
:10028000000083EA010180EA020281EA0303362DBD
:1002900088BF30BD11F0004F4FEA01314FF4801C90
:1002A0004CEA113102D0404261EB410113F0004FA2
:1002B0004FEA03334CEA133302D0524263EB430359
:1002C00094EA050F00F0A780A4F10104D5F1200EF7
:1002D0000DDB02FA0EFC22FA05F2801841F1000152
:1002E00003FA0EF2801843FA05F359410EE0A5F126
:1002F00020050EF1200E012A03FA0EFC28BF4CF057
:10030000020C43FA05F3C01851EBE37101F000450C
:1003100007D54FF0000EDCF1000C7EEB00006EEB19
:100320000101B1F5801F1BD3B1F5001F0CD34908A3
:100330005FEA30004FEA3C0C04F101044FEA4452FA
:1003400012F5800F80F09A80BCF1004F08BF5FEA81
:10035000500C50F1000041EB045141EA050130BD61
:100360005FEA4C0C404141EB0101013C28BFB1F573
:10037000801FE9D291F0000F04BF01460020B1FABE
:1003800081F308BF2033A3F10B03B3F120020CDA91
:100390000C3208DD02F1140CC2F10C0201FA0CF06F
:1003A00021FA02F10CE002F11402D8BFC2F1200CD4
:1003B00001FA02F120FA0CFCDCBF41EA0C0190408A
:1003C000E41AA2BF01EB0451294330BD6FEA0404D3
:1003D0001F3C1CDA0C340EDC04F11404C4F12002BE
:1003E00020FA04F001FA02F340EA030021FA04F3D0
:1003F00045EA030130BDC4F10C04C4F1200220FA27
:1004000002F001FA04F340EA0300294630BD21FA64
:1004100004F0294630BD94F0000F83F4801306BF2A
:1004200081F480110134013D4EE77FEA645C18BF1E
:100430007FEA655C29D094EA050F08BF90EA020FB5
:1004400005D054EA000C04BF1946104630BD91EAAD
:10045000030F1EBF0021002030BD5FEA545C05D1B0
:100460004000494128BF41F0004130BD14F58004EF
:100470003CBF01F5801130BD01F0004545F0FE4163
:1004800041F470014FF0000030BD7FEA645C1ABF98
:10049000194610467FEA655C1CBF0B46024650EACF
:1004A000013406BF52EA033591EA030F41F40021FB
:1004B00030BD00BF90F0000F04BF0021704730B581
:1004C0004FF4806404F132044FF000054FF0000156
:1004D00050E700BF90F0000F04BF0021704730B517
:1004E0004FF4806404F1320410F0004548BF4042EC
:1004F0004FF000013EE700BF42004FEAE2014FEA41
:1005000031014FEA02701FBF12F07F4393F07F4F1B
:1005100081F06051704732F07F4208BF704793F01E
:100520007F4F04BF41F40021704730B54FF4607431
:1005300001F0004521F000411CE700BF50EA010234
:1005400008BF704730B54FF000050AE050EA0102DD
:1005500008BF704730B511F0004502D5404261EB4D
:1005600041014FF4806404F132045FEA915C3FF48E
:10057000D8AE4FF003025FEADC0C18BF03325FEA2B
:10058000DC0C18BF033202EBDC02C2F1200300FADC
:1005900003FC20FA02F001FA03FE40EA0E0021FA01
:1005A00002F11444BDE600BF70B54FF0FF0C4CF4EF
:1005B000E06C1CEA11541DBF1CEA135594EA0C0FA1
:1005C00095EA0C0F00F0DEF82C4481EA030621EADC
:1005D0004C5123EA4C5350EA013518BF52EA033517
:1005E00041F4801143F4801338D0A0FB02CE4FF0C9
:1005F0000005E1FB02E506F00042E0FB03E54FF0F9
:100600000006E1FB03569CF0000F18BF4EF0010EF0
:10061000A4F1FF04B6F5007F64F5407404D25FEAEC
:100620004E0E6D4146EB060642EAC62141EA55519F
:100630004FEAC52040EA5E504FEACE2EB4F1FD0CE1
:1006400088BFBCF5E06F1ED8BEF1004F08BF5FEA5F
:10065000500E50F1000041EB045170BD06F0004611
:1006600046EA010140EA020081EA0301B4EB5C04BE
:10067000C2BFD4EB0C0541EA045170BD41F48011B6
:100680004FF0000E013C00F3AB8014F1360FDEBFDB
:10069000002001F0004170BDC4F10004203C35DAB7
:1006A0000C341BDC04F11404C4F1200500FA05F33A
:1006B00020FA04F001FA05F240EA020001F00042DB
:1006C00021F0004110EBD37021FA04F642EB060151
:1006D0005EEA430E08BF20EAD37070BDC4F10C047B
:1006E000C4F1200500FA04F320FA05F001FA04F23F
:1006F00040EA020001F0004110EBD37041F100012B
:100700005EEA430E08BF20EAD37070BDC4F1200535
:1007100000FA05F24EEA020E20FA04F301FA05F29D
:1007200043EA020321FA04F001F0004121FA04F245
:1007300020EA020000EBD3705EEA430E08BF20EA15
:10074000D37070BD94F0000F0FD101F0004640004F
:1007500041EB010111F4801F08BF013CF7D041EAD1
:10076000060195F0000F18BF704703F000465200D5
:1007700043EB030313F4801F08BF013DF7D043EAA6
:100780000603704794EA0C0F0CEA135518BF95EA5C
:100790000C0F0CD050EA410618BF52EA4306D1D1E3
:1007A00081EA030101F000414FF0000070BD50EA02
:1007B000410606BF1046194652EA430619D094EA8C
:1007C0000C0F02D150EA013613D195EA0C0F05D176
:1007D00052EA03361CBF104619460AD181EA0301CA
:1007E00001F0004141F0FE4141F470014FF0000082
:1007F00070BD41F0FE4141F4780170BD70B54FF01D
:10080000FF0C4CF4E06C1CEA11541DBF1CEA13559C
:1008100094EA0C0F95EA0C0F00F0A7F8A4EB05047E
:1008200081EA030E52EA03354FEA013100F0888075
:100830004FEA03334FF0805545EA131343EA12633E
:100840004FEA022245EA111545EA10654FEA0026F3
:100850000EF000419D4208BF964244F1FD0404F5AC
:10086000407402D25B084FEA3202B61A65EB030508
:100870005B084FEA32024FF480104FF4002CB6EBC5
:10088000020E75EB030E22BFB61A754640EA0C0045
:100890005B084FEA3202B6EB020E75EB030E22BF85
:1008A000B61A754640EA5C005B084FEA3202B6EBC6
:1008B000020E75EB030E22BFB61A754640EA9C0085
:1008C0005B084FEA3202B6EB020E75EB030E22BF55
:1008D000B61A754640EADC0055EA060E18D04FEA13
:1008E000051545EA16754FEA06164FEAC30343EAB3
:1008F00052734FEAC2025FEA1C1CC0D111F4801F80
:100900000BD141EA00014FF000004FF0004CB6E778
:1009100011F4801F04BF01430020B4F1FD0C88BF17
:10092000BCF5E06F3FF6AFAEB5EB030C04BFB6EB22
:10093000020C5FEA500C50F1000041EB045170BD15
:100940000EF0004E4EEA113114EB5C04C2BFD4EB42
:100950000C0541EA045170BD41F480114FF0000EC6
:10096000013C90E645EA060E8DE60CEA135594EA42
:100970000C0F08BF95EA0C0F3FF43BAF94EA0C0F45
:100980000AD150EA01347FF434AF95EA0C0F7FF4BA
:1009900025AF104619462CE795EA0C0F06D152EA0E
:1009A00003353FF4FDAE1046194622E750EA4106F2
:1009B00018BF52EA43067FF4C5AE50EA41047FF403
:1009C0000DAF52EA43057FF4EBAE12E74FF0FF3C68
:1009D00006E000BF4FF0010C02E000BF4FF0010C39
:1009E0004DF804CD4FEA410C7FEA6C5C4FEA430CB2
:1009F00018BF7FEA6C5C1BD001B050EA410C0CBF01
:100A000052EA430C91EA030F02BF90EA020F002062
:100A1000704710F1000F91EA030F58BF994208BFC9
:100A200090422CBFD8176FEAE37040F00100704786
:100A30004FEA410C7FEA6C5C02D150EA013C07D1DD
:100A40004FEA430C7FEA6C5CD6D152EA033CD3D028
:100A50005DF8040B704700BF8446104662468C4622
:100A60001946634600E000BF01B5FFF7B7FF002855
:100A700048BF10F1000F01BD4DF808EDFFF7F4FF7E
:100A80000CBF012000205DF808FB00BF4DF808ED09
:100A9000FFF7EAFF34BF012000205DF808FB00BF2C
:100AA0004DF808EDFFF7E0FF94BF012000205DF84E
:100AB00008FB00BF4DF808EDFFF7CEFF94BF012003
:100AC00000205DF808FB00BF4DF808EDFFF7C4FFFC
:100AD00034BF012000205DF808FB00BF4FEA41024F
:100AE00012F5001215D211D56FF47873B3EB625280
:100AF00012D94FEAC12343F0004343EA505311F0A7
:100B0000004F23FA02F018BF404270474FF0000038
:100B1000704750EA013005D111F0004008BF6FF076
:100B2000004070474FF00000704700BF4A0011D2EC
:100B300012F5001211D20DD56FF47873B3EB625237
:100B40000ED44FEAC12343F0004343EA505323FA43
:100B500002F070474FF00000704750EA013002D1B8
:100B60004FF0FF3070474FF0000070474FEA4102EE
:100B7000B2F1E04324BFB3F5001CDCF1FE5C0DD9FB
:100B800001F0004C4FEAC0024CEA5070B2F1004F45
:100B900040EB830008BF20F00100704711F0804F48
:100BA00021D113F13872BCBF01F00040704741F40D
:100BB00080114FEA5252C2F11802C2F1200C10FA11
:100BC0000CF320FA02F018BF40F001004FEAC123F5
:100BD0004FEAD32303FA0CFC40EA0C0023FA02F399
:100BE0004FEA4303CCE77FEA625307D150EA01336F
:100BF0001EBF4FF0FE4040F44000704701F000403F
:100C000040F0FE4040F40000704700BF80F000401C
:100C100002E000BF81F0004142001FBF5FEA4103D4
:100C200092EA030F7FEA226C7FEA236C6AD04FEAD4
:100C30001262D2EB1363C1BFD21841404840414019
:100C4000B8BF5B42192B88BF704710F0004F40F4CB
:100C5000000020F07F4018BF404211F0004F41F4E7
:100C6000000121F07F4118BF494292EA030F3FD0B3
:100C7000A2F1010241FA03FC10EB0C00C3F12003C6
:100C800001FA03F100F0004302D5494260EB400055
:100C9000B0F5000F13D3B0F1807F06D340084FEAC0
:100CA000310102F10102FE2A51D2B1F1004F40EBB5
:100CB000C25008BF20F0010040EA0300704749001D
:100CC00040EB0000013A28BFB0F5000FEDD2B0FABA
:100CD00080FCACF1080CB2EB0C0200FA0CF0AABFDD
:100CE00000EBC25052421843BCBFD040184370477B
:100CF00092F0000F81F4000106BF80F40000013281
:100D0000013BB5E74FEA41037FEA226C18BF7FEA57
:100D1000236C21D092EA030F04D092F0000F08BF99
:100D20000846704790EA010F1CBF0020704712F080
:100D30007F4F04D1400028BF40F00040704712F1BF
:100D400000723CBF00F50000704700F0004343F024
:100D5000FE4040F4000070477FEA226216BF08465A
:100D60007FEA23630146420206BF5FEA412390EA1D
:100D7000010F40F4800070474FF0000304E000BF13
:100D800010F0004348BF40425FEA000C08BF7047C4
:100D900043F0964301464FF000001CE050EA010288
:100DA00008BF70474FF000030AE000BF50EA01029D
:100DB00008BF704711F0004302D5404261EB41018A
:100DC0005FEA010C02BF84460146002043F0B643AF
:100DD00008BFA3F18053A3F50003BCFA8CF2083AD4
:100DE000A3EBC25310DB01FA02FC634400FA02FCDD
:100DF000C2F12002BCF1004F20FA02F243EB0200E4
:100E000008BF20F00100704702F1200201FA02FC45
:100E1000C2F1200250EA4C0021FA02F243EB020038
:100E200008BF20EADC7070474FF0FF3C06E000BFCF
:100E30004FF0010C02E000BF4FF0010C4DF804CD63
:100E40004FEA40024FEA41037FEA226C18BF7FEA73
:100E5000236C11D001B052EA530C18BF90EA010F75
:100E600058BFB2EB030088BFC81738BF6FEAE17004
:100E700018BF40F0010070477FEA226C02D15FEAA0
:100E8000402C05D17FEA236CE4D15FEA412CE1D00C
:100E90005DF8040B704700BF844608466146FFE7D3
:100EA0000FB5FFF7C9FF002848BF10F1000F0FBDB5
:100EB0004DF808EDFFF7F4FF0CBF012000205DF8AE
:100EC00008FB00BF4DF808EDFFF7EAFF34BF012033
:100ED00000205DF808FB00BF4DF808EDFFF7E0FFCC
:100EE00094BF012000205DF808FB00BF4DF808ED1D
:100EF000FFF7D2FF94BF012000205DF808FB00BF80
:100F00004DF808EDFFF7C8FF34BF012000205DF861
:100F100008FB00BF4FEA4002B2F1FE4F0FD34FF083
:100F20009E03B3EB12620DD94FEA002343F0004356
:100F300010F0004F23FA02F018BF404270474FF004
:100F40000000704712F1610F01D1420205D110F08B
:100F5000004008BF6FF0004070474FF0000070473E
:100F600042000ED2B2F1FE4F0BD34FF09E03B3EB13
:100F7000126209D44FEA002343F0004323FA02F03F
:100F800070474FF00000704712F1610F01D142022B
:100F900002D14FF0FF3070474FF00000704700BFA4
:100FA00053B94AB9002908BF00281CBF4FF0FF31D0
:100FB0004FF0FF3000F0BEB9ADF1080C6DE904CE82
:100FC00000F03CF8DDF804E0DDE9022304B07047EE
:100FD00038B50022002304460D46FFF757FD28B917
:100FE00020462946BDE8384000F00AB8204605F101
:100FF000004100F005F8404261EB410138BD00BFFF
:10100000D0B50C4B002206460F46FFF7CDFAFFF78E
:101010008DFD0446FFF74EFA074B0022FFF7C4FA96
:1010200002460B4630463946FFF706F9FFF77EFDCC
:101030002146D0BD0000F03D0000F0412DE9F04711
:10104000089D8E4604468846002B4AD18A421746A0
:1010500062D9B2FA82F64EB1C6F1200301FA06F85F
:1010600020FA03F3B74043EA0808B4404FEA174EAA
:101070001FFA87FCB8FBFEF1230C0EFB118843EA34
:10108000084301FB0CF29A4209D9FB1801F1FF3029
:1010900080F0EA809A4240F2E78002393B449A1A93
:1010A000A3B2B2FBFEF00EFB102243EA024300FBA8
:1010B0000CFC9C4509D9FB1800F1FF3280F0D6806A
:1010C0009C4540F2D3803B44023840EA0140A3EB08
:1010D0000C0300211DB1F3400022C5E90032BDE838
:1010E000F0878B4205D90DB1C5E900010021084602
:1010F000F5E7B3FA83F1002946D1734502D3824262
:1011000000F20581841A6EEB030201209046002D47
:10111000E5D0C5E90048E2E7002A00F09080B2FA85
:1011200082F6002E40F0A4808A1A030C4FEA174E74
:1011300080B2BCB20121B2FBFEFC0EFB1C2243EAD2
:10114000024304FB0CF29A4207D9FB180CF1FF385A
:1011500002D29A4200F2E080C4469B1AB3FBFEF230
:101160000EFB123340EA034302FB04F49C4207D90E
:10117000FB1802F1FF3002D29C4200F2CA80024604
:101180001B1B42EA0C40A5E7C1F120068B4022FA66
:1011900006F71F430EFA01F420FA06F32EFA06FEB4
:1011A0004FEA1749234300FA01F81FFA87FCBEFBF8
:1011B000F9F01C0C09FB10EE44EA0E4400FB0CFE97
:1011C000A64502FA01F209D93C1900F1FF3A80F074
:1011D0009C80A64540F2998002383C44A4EB0E0462
:1011E0001FFA83FEB4FBF9F309FB13444EEA0444EF
:1011F00003FB0CFCA44508D93C1903F1FF3E80F029
:101200008280A4457FD9023B3C4443EA0040A4EBE2
:101210000C04A0FB02EC64457346E14662D35FD048
:101220005DB1B8EB030264EB090404FA06F622FA96
:1012300001F31E43CC40C5E9006400214FE7B1FB38
:10124000F2FC010C41EA0E4180B240EA01423B4609
:1012500038463C46B846BE462026B1FBF7F1A2EB25
:10126000080241EA0C4166E7014618E710462CE700
:10127000C6F120022EFA02F3B740B14020FA02F282
:101280004FEA174E0A43B3FBFEF8BCB20EFB18330D
:10129000110C41EA034108FB04F9B04089454FEACB
:1012A000104380B23ED9791808F1FF3C01D289453C
:1012B0001FD8A1EB0901B1FBFEF909FB04F80EFBF5
:1012C000191192B242EA0142424529D2BA1809F1F3
:1012D000FF31C4D24245C2D2A9F102013A44BEE76D
:1012E000F0459DD2BEEB02036CEB070C0138E146E2
:1012F00096E7A7EB09094944A8F1020CB1FBFEF9F6
:1013000009FB04F8DBE773467FE7504666E70846CB
:10131000FDE63B44023A33E7ACF1020C3B441CE7E8
:1013200049469CE7A1EB0901C446B1FBFEF909FB64
:1013300004F8C4E7704700BF80B485B000AF7860A0
:101340004FF0B043DA6C4FF0B0417B681343CB648D
:101350004FF0B043DA6C7B681340FB60FB6800BF62
:101360001437BD4680BC704780B485B000AF78604C
:101370004FF0B0431A6E4FF0B0417B6813430B66D9
:101380004FF0B0431A6E7B681340FB60FB6800BFF0
:101390001437BD4680BC704780B483B000AF78601E
:1013A0004FF0B0431A6E7B68DB434FF0B0411340FF
:1013B0000B6600BF0C37BD4680BC704780B500AFE0
:1013C000234B244A1A60224B4FF000425A60204BB4
:1013D00000229A601E4B0022DA601D4B00221A6127
:1013E0001B4B04225A611A4B00221A76184B00221A
:1013F0005A76174B00229A76154B0122DA61144B6C
:10140000002283F82020124B00225A62104B002247
:101410009A620F4B002283F82C200D4B4FF4805220
:101420001A630B4B07225A63094B07229A63084B36
:10143000002283F83C20064B0022DA64044802F0C4
:1014400083FB0346002B01D000F052FD00BF80BD9E
:10145000400300200024014080B588B000AF7860D0
:1014600007F10C0300221A605A609A60DA601A6170
:101470007B681B680C4A934212D14FF40070FFF74F
:1014800073FF0220FFF758FF1023FB6003233B612B
:1014900000237B6107F10C031946044804F094F91A
:1014A00000BF2037BD4680BD002401400004004835
:1014B00080B582B000AF78607B681B68074A9342B2
:1014C00007D14FF40070FFF767FF1021044804F0C4
:1014D000DBFA00BF0837BD4680BD00BF00240140D5
:1014E0000004004880B400AF034B044A1A6000BFF8
:1014F000BD4680BC704700BF40030020002401406F
:1015000080B58CB006AF00237B8100237B60002375
:101510007B6100233B610023FB602A4800F060F8F8
:1015200078607B68002B01D1002347E0264B1B88A5
:101530004FF6FF7293420BD0234B1B881A4640F69E
:10154000E44303FB02F27B68B2FBF3F37B6104E04C
:101550001E4A7B68B2FBF3F37B611D4800F040F844
:1015600038613B69002B02D10023FB600BE03B6933
:101570007A6903FB02F2174BA3FB0213D21A52083B
:101580001344DB0AFB60FB6840F2931202FB03F397
:10159000114AA2FB03235B097B817B890493FB68CF
:1015A00003933B6902937B6901937B6800930B4B28
:1015B0000122002102201BF01BFE7B8918461837F0
:1015C000BD4680BD002000B4AA75FF1FD8084C009E
:1015D0000800000C010110001F85EB51B008020843
:1015E00080B586B000AF786000237B6107F1080307
:1015F00000221A605A609A60FFF7E0FE1A4803F072
:10160000DDF80346002B01D000F072FC7B68BB6064
:101610000023FB6000233B6107F1080319461248D1
:1016200002F0CEFD0346002B01D000F061FC0E4815
:1016300002F0AAFC0346002B01D000F059FC4FF049
:10164000FF31094802F018FD074802F0E3FC0648A4
:1016500002F0A9FD7861044802F00AFC7B69184693
:101660001837BD4680BD00BF4003002080B485B060
:1016700000AF78604FF0B0439A6C4FF0B0417B6898
:1016800013438B644FF0B0439A6C7B681340FB604C
:10169000FB6800BF1437BD4680BC704780B500AF03
:1016A0000420FFF7E3FF0120FFF7E0FF0022002105
:1016B0000B2003F04CFA0B2003F063FA0022002108
:1016C0000C2003F044FA0C2003F05BFA0022002106
:1016D0000D2003F03CFA0D2003F053FA00BF80BD4B
:1016E00080B586B000AFF860B9607A60FF23FB7503
:1016F000FB68B3F1006F11D30B4B1B689A020B4BC5
:10170000134003F10063013BFA68934206D37A6801
:10171000B968F86800F034F80346FB7597F917309C
:1017200018461837BD4680BDE075FF1F00FCFF035B
:1017300080B586B000AFF860B9607A60FF23FB75B2
:10174000BB68B3F1006F11D30B4B1B689A020B4BB4
:10175000134003F10063013BBA68934206D37A68F1
:10176000B968F86800F044F90346FB7597F917303B
:1017700018461837BD4680BDE075FF1F00FCFF030B
:101780002DE9B04F98B000AF78623962FA6100235A
:1017900087F85F307B6ABB653B6A7B65FB693B65AD
:1017A0004FF000024FF00003C7E90A237B6A002BC9
:1017B0000CD03B6A002B09D0FB6903F00703002B18
:1017C00004D17B6A03F00703002B02D06FF00503FE
:1017D00003E100F095F9034687F85F3097F95F3031
:1017E000002B40F0F88003F017FE0346002B40F07A
:1017F000EF80BB6D03F178417A4B1B689A027A4BFC
:101800001340B1FBF3F202FB03F3CB1ADB0A3B6498
:10181000BA6DFB69134403F178410139714B1B68C0
:101820009A02714B1340B1FBF3F202FB03F3CB1AA4
:10183000DA0A3B6CD31A0133FB63FB6B012B05D92E
:10184000BB6DC3F30A03C3F500633B653B6CFB64EC
:10185000B2E0FB6C03F58033DB02BB63634B1B68B8
:10186000002B03D1FA2387F85F30AEE05F4B186896
:10187000BB6B4FF40062194600F0BAF85B4B1A6874
:10188000BB6DC3F30A03D018796D3B6D9BB21A464A
:101890001AF0CAFCBB6B4FF40061184600F0C6F8A2
:1018A0000346002B03D0FE2387F85F308DE0BB6B2F
:1018B0007B644E4B1B687B634FF400633B6303F018
:1018C000ABFD0346002B02D0FB2387F85F300023DB
:1018D000BB6455E07A6BBB6C13441B6800223B6110
:1018E0007A61D7E90423C7E90A237A6BBB6C1344F6
:1018F00004331B680022BB60FA604FF000004FF019
:101900000001BB6819000020D7E90A2340EA020A57
:1019100041EA030BC7E90AABD7E90A23796C012036
:1019200003F036FD0346002B23D17B6C1B6800229D
:10193000984691467B6C04331B6800223B607A60BA
:101940004FF000024FF0000339680B00002248EA14
:10195000020449EA0305D7E90A239D4208BF9442DD
:1019600003D0FC2387F85F300EE07B6C08337B6488
:1019700003E0FC2387F85F3006E0BB6C0833BB64F0
:10198000BA6C3B6B9A42A5D397F95F30002B1BD101
:10199000BA6D3B6D1344BB657A6D3B6D13447B653B
:1019A000FA693B6DD31AB3F5006F28BF4FF400639B
:1019B0003B65FB6C0133FB643A6CFB6B1344FA6CC4
:1019C0009A42FFF446AF00E000BF03F047FD02E09B
:1019D000FB2387F85F3097F95F3018466037BD46C4
:1019E000BDE8B08FE075FF1F00FCFF03A4030020DB
:1019F00080B586B000AFF860B9607A600023FB75EF
:101A0000FB68002B02D0BB68002B02D16FF00503EE
:101A100008E07B689BB21A46B968F8681AF004FCC3
:101A200097F9173018461837BD4680BD80B588B085
:101A300000AF786039600023FB770123BB77002378
:101A40007B617B68BB617B68002B02D16FF0050373
:101A50004EE000F055F80346FB7797F91F30002B56
:101A600044D103F0D9FC0346002B3DD10223BB60D7
:101A7000BB6903F17842204B1B6899021F4B0B4056
:101A8000B2FBF3F101FB03F3D31ADB0AFB60BA6983
:101A90003B68134403F17843013B174A12689102F3
:101AA000164A0A40B3FBF2F101FB02F29B1ADA0A72
:101AB000FB68D31A01333B6107F1140207F10803F5
:101AC0001146184603F0AAFD0346BB77BB7F002BE7
:101AD00007D0BB7F022B01D1012301E06FF001038E
:101AE000FB7703F0BBFC01E0FB23FB7797F91F308A
:101AF00018462037BD4680BDE075FF1F00FCFF0380
:101B000080B582B000AFFB23FB7103F085FC034678
:101B1000002B10D10B4B9B690A4A43F04043936161
:101B2000084B4CF2FA321A6103F098FC0346002B82
:101B300001D10023FB7197F9073018460837BD46DD
:101B400080BD00BF0040005880B485B000AF786011
:101B50004FF0B043DA6C4FF0B0417B681343CB6475
:101B60004FF0B043DA6C7B681340FB60FB6800BF4A
:101B70001437BD4680BC704780B586B000AF3B1DB2
:101B800000221A605A609A60DA601A610120FFF739
:101B9000DBFF0220FFF7D8FF0420FFF7D5FF00226C
:101BA0000821404804F055F8012220213D4804F066
:101BB00050F8002240F231214FF0904004F049F8F3
:101BC0004FF400437B601223BB600023FB600023C3
:101BD0003B6104237B613B1D19464FF0904003F0AD
:101BE000F3FD4FF400437B601223BB600023FB60D6
:101BF00000233B6104237B613B1D1946294803F008
:101C0000E3FD28237B600123BB600023FB600323EB
:101C10003B613B1D1946234803F0D6FD31237B6011
:101C20000123BB600023FB6003233B613B1D19467E
:101C30004FF0904003F0C8FD4FF400537B604FF429
:101C40000413BB600123FB603B1D1946154803F0DC
:101C5000BBFD4FF400737B600123BB600023FB607E
:101C600000233B613B1D19464FF0904003F0ACFD53
:101C70004FF480637B604FF48813BB600123FB60EB
:101C80003B1D1946074803F09FFD00220021292033
:101C900002F05DFF292002F074FF00BF1837BD4637
:101CA00080BD00BF0004004880B483B000AF7860FE
:101CB0004FF0B043D3F8903023F018024FF0B0410A
:101CC0007B681343C1F8903000BF0C37BD4680BC21
:101CD0007047000080B582B000AF7860391D4FF0CA
:101CE000FF330122034806F040FC7B6818460837A2
:101CF000BD4680BDAC04002080B584B002AF01F0C9
:101D000035FD00F069F8FFF737FF08F097FE01F0A6
:101D1000D9F801F023F94FF400133B603B4693E8F8
:101D20000600254808F0DBFC00BF234B1B68DB697D
:101D300003F48033B3F5803FF7D000BF1E4B1B6820
:101D4000DB6903F48003B3F5800FF7D11A4B1B68EE
:101D50009A68194B1B6842F480029A600023009332
:101D6000164B00224FF47A7115481AF093FF12486F
:101D700008F010FD1348FEF703FA03469AB24FF03D
:101D8000FF3310490C4806F0F0FB01220E490A48C7
:101D900006F084FC0D4B1B78DBB2002B08D00C4BFB
:101DA00001221A70094B00221A700A4B00221A8075
:101DB00008F04CFEEEE700BFAC0400208D1E0008CA
:101DC000AC030020000000206C06002072080020F8
:101DD000A80300207008002080B59AB000AF07F17A
:101DE00020034822002118461CF041FC07F108039B
:101DF00000221A605A609A60DA601A615A6103F030
:101E000057FF0020FFF750FF1F4B1B6823F4C063F0
:101E10001D4A43F4007313601B4B1B6803F4C0633B
:101E20007B607B6824233B628123FB6201233B644C
:101E300000237B64B023BB640023FB6407F1200311
:101E4000184604F081FA0346002B01D000F050F848
:101E50004F23BB600023FB6000233B6100237B61B9
:101E60000023BB610023FB6107F108030221184630
:101E700004F0ECFD0346002B01D000F039F800BF60
:101E80006837BD4680BD00BF0004005880B582B0F1
:101E900000AF786000224FF400714FF0904003F0E3
:101EA000D8FE00BF0837BD4680BD000080B592B0A7
:101EB00000AF0346FB71FB7907F108000A4A402195
:101EC0001CF05CFB07F108031846FEF759F90346BE
:101ED0009AB207F108014FF0FF33044806F045FBC2
:101EE00000BF4837BD4680BD040902081804002021
:101EF00080B400AF72B600BF00BFFDE780B400AF92
:101F00004FF0B043D3F890304FF0B04243F4004369
:101F1000C2F8903000BFBD4680BC704780B485B029
:101F200000AF78604FF0B0439A6D4FF0B0417B68DE
:101F300013438B654FF0B0439A6D7B681340FB6091
:101F4000FB6800BF1437BD4680BC704780B58CB0BD
:101F500000AF3B1D2C22002118461CF088FB224BB1
:101F6000224A1A60204B1F229A601F4B00221A61DE
:101F70001D4B00225A611C4B00229A611A4B4FF0F4
:101F80008042DA61184B00221A62174B4FF48072BC
:101F90005A62154805F016FA0346002B01D0FFF7E8
:101FA000A7FF114805F016FD0346002B01D0FFF7EF
:101FB0009FFF00233B620023BB600023BB614FF007
:101FC0000053FB614FF48073FB623B1D00221946F6
:101FD000054805F083FA0346002B01D0FFF788FF80
:101FE00000BF3037BD4680BDC4030020002800403C
:101FF00080B590B000AF786007F108033822002167
:1020000018461CF034FB7B681B68164A934225D1A6
:102010004FF48033BB604FF48073FB6307F1080318
:10202000184605F0B5F80346002B01D0FFF760FF16
:10203000FFF764FF4FF48060FFF770FF002200217C
:10204000022002F084FD022002F09BFD002200210C
:102050002A2002F07CFD2A2002F093FD00BF4037C9
:10206000BD4680BD0028004080B400AF034B012274
:10207000C3F8882000BFBD4680BC704700040058EC
:1020800080B400AF00BFBD4680BC704780B400AFD5
:1020900000BFBD4680BC704780B500AF01F086FB35
:1020A000FFF7E2FF012003F095FE00BF80BD80B581
:1020B00000AF01F089FB01F0B1F900BF80BD80B530
:1020C00000AF01F073FB0121002003F0FFFD00BF12
:1020D00080BD80B500AF01F077FB00BF80BD80B44C
:1020E00000AF00BFBD4680BC704780B400AF00BFEA
:1020F000FDE780B400AF00BFFDE780B400AF00BFD4
:10210000FDE780B400AF00BFFDE780B400AF00BFC3
:10211000FDE780B400AF00BFBD4680BC704780B40F
:1021200000AF00BFBD4680BC704780B400AF00BFA9
:10213000BD4680BC704780B400AF00BFBD4680BCC8
:102140007047000080B500AF024805F07FFC00BF7B
:1021500080BD00BFC403002080B500AF024802F07C
:10216000A7FF00BF80BD00BF4005002080B500AFC5
:10217000024802F09DFF00BF80BD00BFA005002007
:1021800080B500AF024802F093FF00BF80BD00BFE2
:102190000006002080B500AF024806F04BFB00BFF0
:1021A00080BD00BFAC04002080B500AF024806F03F
:1021B00041FB00BF80BD00BF1804002080B500AF08
:1021C0004FF4806003F05CFD4FF4005003F058FDC5
:1021D00000BF80BD80B500AF024805F0E7FA00BF40
:1021E00080BD00BFC403002080B500AF024805F0E9
:1021F0009BFF00BF80BD00BFFC03002080B485B002
:1022000000AF78604FF0B0435A6E4FF0B0417B683A
:1022100013434B664FF0B0435A6E7B681340FB602C
:10222000FB6800BF1437BD4680BC704780B500AF67
:10223000064B08221A60054805F0F4FC0346002B03
:1022400001D0FFF755FE00BF80BD00BFFC0300209A
:1022500080B582B000AF78600120FFF7CFFF002289
:102260000021322002F073FC322002F08AFC00BF11
:102270000837BD4680BD80B483B000AF78604FF0B2
:10228000B0439B6823F400424FF0B0417B68134396
:102290008B6000BF0C37BD4680BC704780B400AF78
:1022A000024B1B681846BD4680BC70478075FF1FF7
:1022B00080B400AF034B1B68DBB21846BD4680BC40
:1022C000704700BF8475FF1F80B400AF034B1B68CD
:1022D0001B0A1846BD4680BC704700BF8475FF1FAF
:1022E00080B500AF0020FFF7C6FF1AF0C3FC104B0B
:1022F00001221A7000F036FA1AF04CFF0D481AF05D
:10230000F7FF0D4B4FF400421A6102201AF0FEFF56
:10231000FFF7E8F800F05AFA19F0E0FE0121012079
:1023200019F01CFF0121012019F0E8FE00BF80BD5B
:1023300008040020852600080040005880B500AF42
:1023400019F03CFF00BF80BDB0B594B004AF0023CE
:1023500087F83F30002387F83E30FFF7D1F8034677
:102360007B867B8E41F26802934203D9FE2387F875
:102370003F3017E07B8E40F6B732934203D80023FC
:1023800087F83F300EE07B8EA3F6B8331A4613462B
:10239000DB019B1A5B001A465C4BA3FB0223DB09A3
:1023A00087F83F305A4B07F10C041D460FCD0FC480
:1023B0002B682360574A3B4607CA03C31A800A2387
:1023C000FB62BB897A8E9A4203D83B7887F83E300D
:1023D00066E0FB6A013B5B0040333B4433F8343C2E
:1023E0007A8E9A4208D3FB6A013B40333B4413F890
:1023F000403C87F83E3053E00023BB634BE0BB6BAF
:102400005B0040333B4433F8343C7A8E9A423FD3EE
:10241000BB6B01335B0040333B4433F8343C7A8E72
:102420009A4235D2BB6B01335B0040333B4433F8F7
:10243000343C1A46BB6B5B0040333B4433F8343CBE
:10244000D31ABB62BB6B013340333B4413F8403CAF
:1024500019463A46BB6B13441B78CB1A7B627A8EC3
:10246000BB6B5B0040333B4433F8343CD31A3B62D4
:102470003A46BB6B13441A783B6A796A03FB01F155
:10248000BB6AB1FBF3F3DBB2134487F83E3007E0DD
:10249000BB6B0133BB63FB6A013BBA6B9A42AEDB99
:1024A00097F83E30002B03D1012387F83F3018E026
:1024B00097F83E201346DB019B1A5B001A46164B29
:1024C000A3FB02235B097B637B6B002B01D1012300
:1024D0007B637B6BFE2B01D9FE237B637B6B87F8D1
:1024E0003F307B8E97F83E2097F83F100291019283
:1024F00000930A4B0122002102201AF079FE97F87E
:102500003F3018464037BD46B0BD00BFB5814E1BB9
:10251000A4090208B80902081F85EB5170090208D6
:1025200080B588B000AF0023FB833B1D184600F048
:1025300023F9BB681846FEF7EDFC0346FB83B7F9A9
:102540001E3018462037BD4680BD90B587B000AF1D
:10255000786000237B61FFF7A1FE78617B69B3F1AE
:10256000FF3F38D101F03EF9044601F04FF9034630
:1025700023443B6101F040F9F8603B691A0E7B6827
:102580000733D2B21A703B691A0C7B680633D2B299
:102590001A703B691A0A7B680533D2B21A707B68DD
:1025A00004333A69D2B21A70FB681A0E7B6803339F
:1025B000D2B21A70FB681A0C7B680233D2B21A705E
:1025C000FB681A0A7B680133D2B21A70FB68DAB270
:1025D0007B681A7031E07B6807337A69D2B21A706F
:1025E0007B691A0A7B680633D2B21A707B691A0CAF
:1025F0007B680533D2B21A707B691A0E7B6804338C
:10260000D2B21A70FFF754FE78617B6803337A699F
:10261000D2B21A70FFF758FE78617B6802337A698C
:10262000D2B21A707B691A0A7B680133D2B21A706F
:102630007B691B0CDAB27B681A7000BF1C37BD4681
:1026400090BD90B583B000AF7860FFF727FE0246DB
:102650007B681A607B681B68B3F1FF3F0DD101F006
:10266000C1F8044601F0C8F803465C4001F0CEF81A
:10267000034684EA03027B681A6000BF0C37BD463C
:1026800090BD000080B586B002AF7860396007F178
:102690000803184619F0A2FEBB68B7F90C20009297
:1026A000074A1021786800F01DF87868FDF768FD8A
:1026B00003469AB23B681A8000BF1037BD4680BD02
:1026C000C409020880B500AF0121022019F016FDEF
:1026D00000BF80BD80B500AF0021022019F00EFDC3
:1026E00000BF80BD0CB480B584B000AF78603960A5
:1026F00007F11C03FB603968FB68BA69786819F058
:10270000D9FF00BF1037BD46BDE8804002B070471A
:1027100080B483B000AF7860002318460C37BD4604
:1027200080BC704780B582B000AF00237B60064B51
:102730001B78002B02D000F0D7F978607B68184630
:102740000837BD4680BD00BF0804002080B582B0B8
:1027500000AF78607B68184600F04DFA00BF08377C
:10276000BD4680BD80B500AF01F05AF801F05EF8BB
:1027700001F062F800BF80BD80B487B000AF786020
:102780000D4B7B610D4B3B610D4BFB607B687A69A8
:102790009A607B683A695A607B68FA681A607B685D
:1027A000084ADA607B68084A1A61002318461C3719
:1027B000BD4680BC704700BF000048420000904109
:1027C00000007A440D093E00AB03050080B483B0DD
:1027D00000AF00237B60002318460C37BD4680BC49
:1027E000704780B400AF01231846BD4680BC7047D7
:1027F00080B582B000AF786039601BF0C1FF03463E
:1028000016221A604FF0FF3318460837BD4680BDC8
:1028100080B582B000AF78604FF0FF317868FFF785
:10282000E7FF00BFFDE780B586B000AFF860B96094
:102830007A6000237B610AE0AFF300800146BB6849
:102840005A1CBA60CAB21A707B6901337B617A691B
:102850007B689A42F0DB7B6818461837BD4680BD1E
:1028600080B586B000AFF860B9607A6000237B6104
:1028700009E0BB685A1CBA601B781846FFF72AFAB1
:102880007B6901337B617A697B689A42F1DB7B6803
:1028900018461837BD4680BD80B483B000AF78605D
:1028A0004FF0FF3318460C37BD4680BC704780B4EC
:1028B00083B000AF786039603B684FF400525A60D3
:1028C000002318460C37BD4680BC704780B483B0E7
:1028D00000AF7860012318460C37BD4680BC7047B6
:1028E00080B485B000AFF860B9607A600023184604
:1028F0001437BD4680BC704780B586B000AF7860A5
:10290000144A154BD31A7B617B693B61134B1B68DF
:10291000002B02D1114B124A1A60104B1A687B68C7
:1029200013443A699A4207D21BF02AFF03460C224D
:102930001A604FF0FF3309E0084B1B68FB60074B40
:102940001A687B681344054A1360FB6818461837F9
:10295000BD4680BD00000120000400000C040020E2
:102960000029002080B400AF00BFBD4680BC704786
:1029700080B483B000AF78607B689B6818460C37E2
:10298000BD4680BC7047000080B582B000AF002318
:10299000FB71144B1B7883F00103DBB2002B1BD0BF
:1029A000114B4FF0FF321A63FFF7D0FA00F056F8E0
:1029B0004FF480710C4804F09DFE0B4B4FF0FF323A
:1029C0001A63094804F0D4FF002000F0D3F900F0A6
:1029D0005FF8044B01221A70FB7918460837BD4690
:1029E00080BD00BF10040020C403002080B58EB05D
:1029F00000AF7860002387F8373007F108032C22F6
:102A0000002118461BF033FE00F028F8114B1B681C
:102A10007A6813447B6000237B627B68DB43FB6046
:102A20000023FB614FF000533B624FF480733B6324
:102A300007F1080301221946074804F04FFD034639
:102A4000002B01D0FFF754FA97F837301846383783
:102A5000BD4680BD14040020C403002080B582B0B0
:102A600000AF0023FB71084B0122DA654FF480713F
:102A7000064804F03FFE054B4FF0FF321A63FB7926
:102A800018460837BD4680BD00280040C40300201A
:102A900080B500AF00F08EF90346034A1360024B85
:102AA0001B68184680BD00BF1404002080B400AF2E
:102AB000024B1B681846BD4680BC704714040020BA
:102AC00080B582B000AF00237B6000F073F902464E
:102AD000044B1B68D31A7B607B6818460837BD46D9
:102AE00080BD00BF1404002080B582B000AF002379
:102AF0007B60064B1B78002B02D000F05BF97860FE
:102B00007B6818460837BD4680BD00BF1004002012
:102B100080B483B000AF00237B6003237B607B68BD
:102B200018460C37BD4680BC7047B0B584B000AFC6
:102B300078600021F960796800200A460346950D07
:102B400094024FF47A724FF0000320462946FEF7B4
:102B500027FA02460B461346FB60FB6818461037FF
:102B6000BD46B0BD2DE9B00F85B000AF7860002143
:102B7000F960796800200C460546204629464FF04A
:102B8000000A4FF0000B4FEA411B4BEAD06B4FEAB3
:102B9000401A50465946021B61EB05034FF00000F6
:102BA0004FF00001990041EA9271900002460B46F5
:102BB00012EB040843EB05094FF000024FF000034D
:102BC0004FEAC90343EA58734FEAC8029046994650
:102BD000404649464FF000024FF00003820A42EAA5
:102BE00081528B0A1346FB60FB6818461437BD46BA
:102BF000BDE8B00F704780B584B000AF78607868EA
:102C0000FFF793FFF86000F0D5F8B86000E000BF70
:102C100000F0D0F80246BB68D31AFA689A42F6D898
:102C200000BF00BF1037BD4680BD80B582B000AF89
:102C300078601AF06DF900BF0837BD4680BD80B5D9
:102C400084B000AF786000F0A5F8F860FB6801334D
:102C5000184600F08FF800BF1037BD4680BD2DE943
:102C6000B04F8CB000AF78610023FB6200F0A2F897
:102C7000B86200F08FF878627B6A0022BB60FA606D
:102C80004FF000024FF00003B9680B000022B96A50
:102C900000200C46054612EB040843EB0509C7E982
:102CA0000689D7E906014FF000024FF00003820ABF
:102CB00042EA81528B0A1346FB62BB6900223B60E9
:102CC0007A603B68C3F3090A4FF0000BC7E906AB13
:102CD000BB691846FFF746FF03469AB27B691A8024
:102CE000FB6A18463037BD46BDE8B08F80B582B06C
:102CF00000AF78607A680021034804F0CBFE00BF83
:102D00000837BD4680BD00BFC403002080B582B037
:102D100000AF78607A680121034804F0BBFE00BF71
:102D20000837BD4680BD00BFC403002080B582B017
:102D300000AF00237B600021044804F0C3FE7860EC
:102D40007B6818460837BD4680BD00BFC40300201D
:102D500080B582B000AF00237B600121044804F0FD
:102D6000B1FE78607B6818460837BD4680BD00BF5D
:102D7000C403002080B582B000AF78607A68022179
:102D8000034804F087FE00BF0837BD4680BD00BF82
:102D9000C403002080B582B000AF0221044804F0D3
:102DA00091FE78607B6818460837BD4680BD00BF3D
:102DB000C403002080B582B000AF0B48FFF7D8FDF8
:102DC000786003E00848FFF7D3FD78600648FFF716
:102DD000CFFD02467B689342F4D17B68DB43184603
:102DE0000837BD4680BD00BF0028004080B485B0D4
:102DF00000AF78604FF0B043DA6C4FF0B0417B68C1
:102E00001343CB644FF0B043DA6C7B681340FB6034
:102E1000FB6800BF1437BD4680BC704780B485B0E6
:102E200000AF78604FF0B043DA6D4FF0B0417B688F
:102E30001343CB654FF0B043DA6D7B681340FB6002
:102E4000FB6800BF1437BD4680BC704780B483B0B8
:102E500000AF78604FF0B043DA6D7B68DB434FF032
:102E6000B0411340CB6500BF0C37BD4680BC7047F6
:102E700080B485B000AF78604FF0B0431A6E4FF069
:102E8000B0417B6813430B664FF0B0431A6E7B680A
:102E90001340FB60FB6800BF1437BD4680BC704721
:102EA00080B483B000AF78604FF0B0431A6E7B6897
:102EB000DB434FF0B04113400B6600BF0C37BD46FB
:102EC00080BC704780B500AF224B234A1A60214B6B
:102ED0004FF4E1325A601F4B00229A601D4B0022D2
:102EE000DA601C4B00221A611A4B0C225A61194BF2
:102EF00000229A61174B00221A62164B00225A6276
:102F0000144B00229A62134B00225A66114805F0B6
:102F1000DCFA0346002B01D0FEF7EAFF00210D4842
:102F200007F0A2FC0346002B01D0FEF7E1FF0021D1
:102F3000084807F0D7FC0346002B01D0FEF7D8FF66
:102F4000044807F059FC0346002B01D0FEF7D0FFE0
:102F500000BF80BD180400200080004080B500AF95
:102F6000234B244A1A60224B4FF416625A60204BBE
:102F700000229A601E4B0022DA601D4B4FF48062E3
:102F80001A611B4B0C225A61194B00229A61184B93
:102F90000022DA61164B00221A62154B00225A6297
:102FA000134B00229A62124805F08FFA0346002B59
:102FB00001D0FEF79DFF00210D4807F055FC0346A8
:102FC000002B01D0FEF794FF0021094807F08AFC8E
:102FD0000346002B01D0FEF78BFF054807F00CFCE1
:102FE0000346002B01D0FEF783FF00BF80BD00BF6A
:102FF000AC0400200038014080B596B000AF786086
:1030000007F1440300221A605A609A60DA601A617C
:1030100007F10C033822002118461BF028FB7B68BF
:103020001B687A4A934255D12023FB600023FB6141
:1030300007F10C03184604F0ABF80346002B01D04F
:10304000FEF756FF0120FFF7E9FE0420FFF7CEFE52
:1030500003237B640223BB640023FB6400233B65E2
:1030600008237B6507F144031946694802F0ACFB6D
:10307000684B694A1A60674B16225A60654B1022EA
:103080009A60644B0022DA60624B80221A61614BC5
:1030900000225A615F4B00229A615E4B0022DA6186
:1030A0005C4B00221A625B4801F088FD0346002B4E
:1030B00001D0FEF71DFF7B68564ADA67554A7B68E8
:1030C000936200220021262001F041FD262001F01C
:1030D00058FD96E07B681B68504A934240F091800F
:1030E0000123FB604FF440333B6107F10C031846AA
:1030F00004F04EF80346002B01D0FEF7F9FE4FF422
:103100008040FFF7B5FE0220FFF770FE80237B644E
:103110000223BB640123FB6400233B6507237B651B
:1031200007F1440319463E4802F04EFB40237B64FE
:103130000223BB640023FB6403233B6507237B65F9
:1031400007F144031946364802F03EFB354B364A38
:103150001A60344B11225A60324B00229A60314B74
:103160000022DA602F4B80221A612E4B00225A6116
:103170002C4B00229A612B4B0022DA61294B002252
:103180001A62284801F01AFD0346002B01D0FEF711
:10319000AFFE7B68234AC3F88020224A7B68936293
:1031A000224B234A1A60214B12225A601F4B1022D5
:1031B0009A601E4B0022DA601C4B80221A611B4B66
:1031C00000225A61194B00229A61184B0022DA61E1
:1031D000164B00221A62154801F0F0FC0346002B42
:1031E00001D0FEF785FE7B68104ADA670F4A7B68DC
:1031F000936200220021242001F0A9FC242001F088
:10320000C0FC00BF5837BD4680BD00BF00800040F5
:103210000008004840050020080002400038014036
:1032200000040048A00500201C0002400006002009
:103230003000024080B582B000AF78607B681B68C8
:10324000184A93420FD10120FFF700FE03211648D0
:1032500002F01AFC7B68DB6F184601F057FD262050
:1032600001F09DFC1AE07B681B68104A934215D15F
:103270004FF48040FFF714FEC0210D4802F004FC1B
:103280007B68D3F88030184601F040FD7B68DB6F27
:10329000184601F03BFD242001F081FC00BF0837F7
:1032A000BD4680BD00800040000800480038014055
:1032B0000004004880B483B000AF78604FF0B043A2
:1032C000DA6B4FF0B0417B681343CB6300BF0C3720
:1032D000BD4680BC704780B483B000AF78604FF0CB
:1032E000B043DA6B7B68DB434FF0B0411340CB63F4
:1032F00000BF0C37BD4680BC7047000080B483B06F
:1033000000AF7860064BD3F8802005497B681343F3
:10331000C1F8803000BF0C37BD4680BC704700BF8D
:103320000008005880B582B000AF7860074A7B681B
:103330001360FEF7B3F9FFF7C5FD4FF08050FFF7BC
:10334000DDFF002318460837BD4680BD6406002017
:1033500080B500AF0120FFF7ADFF0120FFF7BBFFF5
:103360000448FFF767FF0F2001F019FC00231846FF
:1033700080BD00BF1804002080B582B000AF786027
:103380000B467B807B881A467968044805F0D2F9A1
:10339000002318460837BD4680BD00BF1804002032
:1033A00080B584B000AF7860194A7B6813604FF431
:1033B0000013BB6007F1080393E80600154807F007
:1033C0008EF900BF134B1B68DB6903F48033B3F540
:1033D000803FF7D000BF0F4B1B68DB6903F480030D
:1033E000B3F5800FF7D10B4B1B689A68094B1B682C
:1033F00042F480029A60074807F0CCF9012206499E
:10340000044805F04BF9002318461037BD4680BD2F
:1034100068060020180400206006002080B500AF78
:10342000044801F0CBFB0346002B01D0FEF760FD02
:1034300000BF80BD4005002080B582B000AF78603D
:103440007B681B68054A934203D1054B1B6800202B
:10345000984700BF0837BD4680BD00BF00800040D0
:103460006406002080B584B000AF78607B681B687C
:10347000374A934250D1374B1B889BB2B3F5FF7F3D
:1034800035D8354B1B78DBB2002B30D1314B1B8844
:103490009BB25A1C91B22F4A11801A462F4B1978B1
:1034A0002F4B99542B4B1B889BB21A462C4B002157
:1034B00099542A4B1B78292B19D1264B1B889BB278
:1034C0000E2B14D9274926481BF0FEF8F860FB683C
:1034D000002B0CD01F4B1B889BB2013B204A1A4487
:1034E000FB6806339A4202D91B4B01221A70194B12
:1034F0001B889BB2B3F5FF7F08D9164B00221A80B8
:103500004FF40072002116481BF0B1F80122134954
:10351000154805F0C3F818E07B681B68134A93420E
:1035200013D1134B1B68002B0AD07B68D3F8903063
:10353000002B05D10E4B1B68002201210D48984736
:1035400001220C49786805F0A9F81037BD4680BD06
:103550000038014070080020720800206C0600202E
:1035600070060020D0090208AC0400200080004052
:1035700068060020600600200D488546FFF7F2F936
:103580000C480D490D4A002302E0D458C4500433BE
:10359000C4188C42F9D30A4A0A4C002301E0136094
:1035A0000432A242FBD31BF0F1F8FEF7A5FBFEE7C5
:1035B0000000012000000020240300203821020820
:1035C00024030020FC280020FEE780B586B000AF71
:1035D0003B1D00221A605A609A60DA601A6110235B
:1035E0007B600123BB600023FB6003233B613B1D29
:1035F00019464FF0904002F0E7F820237B603B1D16
:1036000019464FF0904002F0DFF8002220214FF0E1
:10361000904002F01EFB002210214FF0904002F07B
:1036200018FB002318461837BD4680BD80B582B010
:1036300000AF0346FB71FB79032B3FD801A252F880
:1036400023F000BF553600086F36000889360008A1
:10365000A3360008002210214FF0904002F0F9FA42
:10366000002220214FF0904002F0F3FA27E00122DF
:1036700010214FF0904002F0ECFA002220214FF090
:10368000904002F0E6FA1AE0012210214FF090403B
:1036900002F0DFFA012220214FF0904002F0D9FA27
:1036A0000DE0002210214FF0904002F0D2FA0122EA
:1036B00020214FF0904002F0CCFA00E000BF002340
:1036C00018460837BD4680BD80B400AF02231846B7
:1036D000BD4680BC704780B400AF01231846BD468C
:1036E00080BC704780B400AF01231846BD4680BC43
:1036F000704780B485B000AF0346FB71FB79002BA7
:1037000002D10F23FB6001E01623FB60FB68184623
:103710001437BD4680BC704780B400AF044B5B6873
:10372000034A23F00103536000BFBD4680BC7047CD
:10373000002004E080B400AF044B5B68034A23F030
:103740000203536000BFBD4680BC7047002004E008
:1037500080B400AF044B5B68034A23F0040353605A
:1037600000BFBD4680BC7047002004E080B582B039
:1037700000AF0023FB71032001F0DEF903F02AFB08
:103780000346094A13600F20FEF7C2FF0346002BD1
:1037900002D00123FB7101E0FEF7A1FCFB79184682
:1037A0000837BD4680BD00BF1400002080B400AFC4
:1037B000044B1B68034A23F00203136000BFBD469D
:1037C00080BC704710E000E080B400AF044B1B6881
:1037D000034A43F00203136000BFBD4680BC70473C
:1037E00010E000E080B400AF024B1B681846BD46F5
:1037F00080BC70479075FF1F80B400AF024B1B6800
:103800001846BD4680BC70479475FF1F80B400AF5A
:10381000024B1B681846BD4680BC70479875FF1F59
:1038200080B500AFFFF778FF00BF80BD80B500AF67
:10383000FFF780FF00BF80BD80B500AFFFF788FFB6
:1038400000BF80BD80B483B000AF786039607B6812
:103850001B6823F0E0723B681A437B681A6000BF64
:103860000C37BD4680BC704780B483B000AF786031
:103870007B681B6803F0E07318460C37BD4680BCBC
:10388000704780B485B000AFF860B9607A60FB68BB
:103890005A69BB6803F00403072101FA03F3DB4311
:1038A0001A40BB6803F00403796801FA03F31A4372
:1038B000FB685A6100BF1437BD4680BC704780B4B6
:1038C00083B000AF786039607B685A693B6803F069
:1038D0000403072101FA03F31A403B6803F00403D1
:1038E00022FA03F318460C37BD4680BC704780B4FB
:1038F00083B000AF78607B68DB6803F44063002B23
:1039000001D1012300E0002318460C37BD4680BCDE
:10391000704780B485B000AFF860B9607A60FB682A
:103920009A6ABB6803F01F030F2101FA03F3DB431C
:103930001A407B689B0E03F00F01BB6803F01F0366
:1039400001FA03F31A43FB689A6200BF1437BD46BD
:1039500080BC704780B483B000AF786039607B680A
:103960009A6A3B68C3F311031A437B689A6200BFEB
:103970000C37BD4680BC704780B483B000AF786020
:1039800039607B689A6A3B68C3F31103DB431A40D2
:103990007B689A6200BF0C37BD4680BC704780B41C
:1039A00085B000AFF860B9607A60FB685A69BB689F
:1039B0001B02DB431A40BB6819027B680B4023F0F3
:1039C0007C4323F0FF031A43FB685A6100BF14379E
:1039D000BD4680BC704780B483B000AF78607B6820
:1039E0009B6823F0104323F0170343F080527B6859
:1039F0009A6000BF0C37BD4680BC704780B483B06E
:103A000000AF78607B689B6823F0104323F01703B6
:103A10007A68936000BF0C37BD4680BC704780B4A5
:103A200083B000AF78607B689B6803F08053B3F18C
:103A3000805F01D1012300E0002318460C37BD460A
:103A400080BC704780B483B000AF78607B689B68AF
:103A500023F0004323F0170343F001027B689A60D0
:103A600000BF0C37BD4680BC704780B483B000AF48
:103A700078607B689B6823F0004323F0170343F0D2
:103A800002027B689A6000BF0C37BD4680BC70475D
:103A900080B483B000AF78607B689B6803F001035B
:103AA000012B01D1012300E0002318460C37BD464D
:103AB00080BC704780B483B000AF78607B689B683F
:103AC00003F00203022B01D1012300E0002318467A
:103AD0000C37BD4680BC704780B483B000AF7860BF
:103AE0007B689B6823F0004323F0170343F0040234
:103AF0007B689A6000BF0C37BD4680BC704780B4BD
:103B000083B000AF78607B689B6823F0004323F0AC
:103B1000170343F010027B689A6000BF0C37BD4664
:103B200080BC704780B483B000AF78607B689B68CE
:103B300003F00403042B01D1012300E00023184605
:103B40000C37BD4680BC704780B588B000AF786048
:103B50000023FB770023BB6100237B610023FB6014
:103B60007B68002B01D101237EE17B681B69002B60
:103B70007B689B6D002B09D17868FDF76DFC7B6835
:103B80000022DA657B68002283F854207B681B687A
:103B90001846FFF744FF0346002B15D17B681B68CE
:103BA0001846FFF718FF9D4B1B689B099C4AA2FB18
:103BB00003239B0901335B00FB6002E0FB68013BD0
:103BC000FB60FB68002BF9D17B681B681846FFF788
:103BD00026FF0346002B0DD17B689B6D43F010023E
:103BE0007B689A657B68DB6D43F001027B68DA6570
:103BF0000123FB777B681B681846FFF793FF38614A
:103C00007B689B6D03F01003002B40F024813B691F
:103C1000002B40F020817B689B6D23F4817343F07F
:103C200002027B689A657B681B681846FFF730FFC5
:103C30000346002B40F0A5807B689A687B681B7E5A
:103C40009B031A437B685B7EDB031A437B689B7E86
:103C50005B0313437A68126B002A02D04FF4805240
:103C600000E000221A437B68DB681A437B681B690B
:103C7000002B04DA7B681B6923F0004301E04FF45A
:103C800000131A437B6893F82C305B001343BA6926
:103C90001343BB617B6893F82030012B14D17B6800
:103CA0009B7E002B04D1BB6943F48033BB610BE0E6
:103CB0007B689B6D43F020027B689A657B68DB6DB7
:103CC00043F001027B68DA657B685B6A002B09D0F0
:103CD0007B685B6A03F4E0727B689B6A1343BA6992
:103CE0001343BB617B681B68DA684E4B13407A68EC
:103CF0001268B9690B43D3607B685B6803F040428C
:103D00007B68DB6C13437A6913437B617B6893F8B0
:103D10003C30012B11D17B685B6803F040427B682B
:103D20001B6C1A437B685B6C1A437B689B6C1A4361
:103D30007B69134343F001037B617B681B681A694D
:103D4000394B13407A68126879690B4313617B68B9
:103D50005B68B3F1404F14D07B685B68B3F1804F70
:103D60000FD07B685B68B3F1004F0AD02F4B1B6804
:103D700023F470127B685B6803F470132B491343C0
:103D80000B607B6818687B685B6B1A460021FFF745
:103D900078FD7B6818687B689B6B1A462449FFF79F
:103DA00070FD7B681B69002B08D17B681B689A6AD1
:103DB0007B681B6862F00F029A6217E07B681B69E0
:103DC000B3F5001F12D17B681B689B6A7B68DB69B7
:103DD000013B9B0003F01C036FF00F0202FA03F19A
:103DE0007B681A6E7B681B680A439A627B681B6853
:103DF00000211846FFF763FD02467B685B6B9A4221
:103E000018D17B680022DA657B689B6D23F0030381
:103E100043F001027B689A6525E000BF1400002092
:103E2000632D3E050102DEFF02FCFF1F0827014053
:103E300004FFFF037B689B6D23F0120343F0100225
:103E40007B689A657B68DB6D43F001027B68DA650D
:103E50000123FB7707E07B689B6D43F010027B68D2
:103E60009A650123FB77FB7F18462037BD4680BD4E
:103E700080B584B000AF78607B68002B01D101234E
:103E80007AE07B689B6D43F002027B689A657868F4
:103E900000F0CEFA0346FB73FB7B002B0FD1786852
:103EA00000F092FB0346FB73FB7B002B02D17B6887
:103EB00001229A657B681B681846FFF79FFD7B68A7
:103EC0001B685B687A68126823F4677323F0030346
:103ED00053607B681B6840F29F321A607B681B68E6
:103EE000D9687B681A68264B0B40D3607B681B68D7
:103EF0005A697B681B6822F007025A617B681B685D
:103F00009B6A7B681B6800229A627B681B681A6A3E
:103F10007B681B6802F0F0221A627B681B685A6A91
:103F20007B681B6802F0F0225A627B681B68DA6AC1
:103F30007B681B6802F0F022DA627B681B681A69F2
:103F40007B681B6822F040421A610E4B1B680D4AC9
:103F500023F0FE7313607868FDF7AAFA7B680022ED
:103F60001A667B680022DA657B6800229A657B68A6
:103F7000002283F85420FB7B18461037BD4680BDD5
:103F800000021E830827014080B584B000AF78602E
:103F90007B681B681846FFF7C5FD0346002B32D12E
:103FA0007B6893F85430012B01D102232EE07B680B
:103FB000012283F85420786800F080FA0346FB73EE
:103FC000FB7B002B1AD17B689B6D23F4706323F07D
:103FD000010343F480727B689A657B680022DA658E
:103FE0007B681B681C221A607B68002283F85420BF
:103FF0007B681B681846FFF76FFD06E07B680022B0
:1040000083F8542001E00223FB73FB7B1846103732
:10401000BD4680BD80B584B000AF78607B6893F802
:104020005430012B01D1022322E07B68012283F866
:104030005420786800F0FCF90346FB73FB7B002BEF
:1040400011D1786800F0C0FA0346FB73FB7B002BAC
:1040500009D17B689B6D23F4807323F0010343F047
:1040600001027B689A657B68002283F85420FB7B01
:1040700018461037BD4680BD80B584B000AF78606B
:1040800039607B685B69082B02D10823FB6010E074
:104090007B681B68DB6803F00103002B07D07B689B
:1040A0009B6D43F020027B689A65012377E004232F
:1040B000FB60FEF737FBB86021E03B68B3F1FF3FE0
:1040C0001DD0FEF72FFB0246BB68D31A3A689A420E
:1040D00002D33B68002B12D17B681B681A68FB680F
:1040E0001340002B0BD17B689B6D43F004027B686F
:1040F0009A657B68002283F8542003234FE07B6895
:104100001B681A68FB681340002BD6D07B689B6D38
:1041100043F400727B689A657B681B681846FFF75A
:10412000E6FB0346002B31D07B689B7E002B2DD114
:104130007B681B681B6803F00803082B26D17B688B
:104140001B681846FFF7EEFC0346002B12D17B6874
:104150001B685A687B681B6822F00C025A607B68F7
:104160009B6D23F4807323F0010343F001027B680D
:104170009A650BE07B689B6D43F020027B689A6533
:104180007B68DB6D43F001027B68DA657B681B7E30
:10419000002B03D17B681B680C221A600023184691
:1041A0001037BD4680BD80B483B000AF78607B68B7
:1041B0001B681B6C18460C37BD4680BC704700005E
:1041C00080B588B000AF786039600023FB770023AA
:1041D000BB607B681B69B3F1004F7B6893F8543078
:1041E000012B01D1022310E17B68012283F85420C6
:1041F0007B681B681846FFF795FC0346002B40F0D0
:10420000F7803B685B68022B00F0B1807B681B691C
:10421000B3F1004F04D07B681B697E4A934208D1FA
:104220007B681A683B681B6819461046FFF792FBCB
:1042300041E07B681A6E3B685B6803F01F030F2147
:1042400001FA03F3DB431A403B681B68C3F3110315
:10425000002B05D13B681B689B0E03F01F0311E088
:104260003B681B683B613B6993FAA3F3FB60FB6807
:104270007B617B69002B01D1202303E07B69B3FACA
:1042800083F3DBB23968496801F01F018B401A43A0
:104290007B681A663B685B689B085A1C7B68DB6915
:1042A0009A4208D87B6818683B6859683B681B6865
:1042B0001A46FFF72EFB7B6818683B6819683B6855
:1042C0009B681A46FFF76BFB3B681B68002B80F26C
:1042D00097805148FFF7C8FAB8613B681B684F4A9E
:1042E000934220D1BB6903F40003002B1BD1BB69AF
:1042F00043F4000319464848FFF7A4FA484B1B68EB
:104300009B09484AA2FB03239B095A1C13465B00E6
:1043100013449B00BB6002E0BB68013BBB60BB6811
:10432000002BF9D16CE03B681B683F4A93420CD1EB
:10433000BB6903F08073002B07D1BB6943F0807326
:1043400019463548FFF77EFA5AE03B681B68374A42
:10435000934255D1BB6903F48003002B50D1BB6954
:1043600043F4800319462C48FFF76CFA48E07B6859
:104370001B69B3F1004F04D07B681B69254A934247
:1043800007D17B681A683B681B6819461046FFF71F
:10439000F3FA3B681B68002B32DA1F48FFF764FA18
:1043A000B8613B681B681D4A934207D1BB6923F47F
:1043B000000319461848FFF745FA21E03B681B68DF
:1043C000194A934207D1BB6923F0807319461248FA
:1043D000FFF738FA14E03B681B68144A93420FD188
:1043E000BB6923F4800319460B48FFF72BFA07E05B
:1043F0007B689B6D43F020027B689A650123FB7705
:104400007B68002283F85420FB7F18462037BD4686
:1044100080BD00BF0400008008270140001000B0EC
:1044200014000020632D3E05004000B8002000B4B9
:1044300080B584B000AF78607B681B681846FFF7D2
:1044400071FB0346002B33D07B681B681846FFF7CF
:1044500031FB0346002B04D17B681B681846FFF72D
:104460004EFBFEF75FF9F8601BE0FEF75BF90246D2
:10447000FB68D31A022B14D97B681B689B6803F076
:104480000403002B0DD07B689B6D43F010027B680A
:104490009A657B68DB6D43F001027B68DA65012376
:1044A00007E07B681B689B6803F00403002BDCD1EA
:1044B000002318461037BD4680BD000080B584B08B
:1044C00000AF78600023BB607B681B681846FFF76D
:1044D000DFFA0346002B69D17B681B689A68364B6C
:1044E0001340002B0DD07B689B6D43F010027B685E
:1044F0009A657B68DB6D43F001027B68DA65012316
:1045000055E07B681B681846FFF79CFA2B48FFF7BD
:10451000ABF9034603F40003002B0FD0284B1B68B4
:104520009B09284AA2FB03239B090133BB6002E0DD
:10453000BB68013BBB60BB68002BF9D17B685B7E2D
:10454000012B33D0FEF7EEF8F86028E07B681B689B
:104550001846FFF79DFA0346002B04D17B681B68C1
:104560001846FFF76FFAFEF7DDF80246FB68D31A2C
:10457000022B14D97B681B681B6803F00103012B15
:104580000DD07B689B6D43F010027B689A657B6859
:10459000DB6D43F001027B68DA65012307E07B688D
:1045A0001B681B6803F00103012BCFD100231846C1
:1045B0001037BD4680BD00BF1700008008270140AE
:1045C00014000020632D3E0580B584B000AF7860F4
:1045D0007B681B681846FFF76DFAF8607B681B68FC
:1045E0001846FFF755FA0346002B47D0FB68002B0F
:1045F00044D17B681B689B6803F00503012B0CD139
:104600007B681B681846FFF730FA7B681B6803223B
:104610001A60FEF787F8B86029E07B689B6D43F06D
:1046200010027B689A657B68DB6D43F001027B6852
:10463000DA65012323E0FEF775F80246BB68D31A5A
:10464000022B14D97B681B689B6803F00103002BC5
:104650000DD07B689B6D43F010027B689A657B6888
:10466000DB6D43F001027B68DA65012307E07B68BC
:104670001B689B6803F00103002BDCD10023184664
:104680001037BD4680BD80B483B000AF78607B68D2
:104690001B6803F4701318460C37BD4680BC704786
:1046A00080B483B000AF78607B681B6903F040433F
:1046B00018460C37BD4680BC704780B483B000AF4D
:1046C000786039607B68D3F8B43023F07F023B68B0
:1046D0001A437B68C3F8B42000BF0C37BD4680BCCA
:1046E000704780B483B000AF78607B68D3F8B43093
:1046F00003F07F0318460C37BD4680BC704780B47A
:1047000083B000AF78607B689B6823F0004323F0A0
:10471000170343F001027B689A6000BF0C37BD4667
:1047200080BC704780B483B000AF78607B689B68C2
:1047300023F0004323F0170343F002027B689A60E2
:1047400000BF0C37BD4680BC704780B483B000AF5B
:1047500078607B689B6803F00103012B01D1012382
:1047600000E0002318460C37BD4680BC704780B47B
:1047700083B000AF78607B689B6823F0004323F030
:10478000170343F000427B689A6000BF0C37BD46B8
:1047900080BC704780B483B000AF78607B689B6852
:1047A00003F00043B3F1004F01D1012300E00023E7
:1047B00018460C37BD4680BC7047000080B58AB0F3
:1047C00000AF78600023FB6000233B627B6893F8B6
:1047D0005430012B01D10223DAE07B68012283F8F7
:1047E00054207868FFF7F0FE0346FB777B681B6870
:1047F0001846FFF7AAFF0346002B40F0BE807B68F7
:104800009B6D23F4817343F002027B689A657B6899
:104810001B68DA6848F203031340BB617B681B68BE
:10482000DB687A68126823F4004323F00303D36043
:1048300000237B622EE07B681B681846FFF797FF1A
:1048400014E0FB680133FB60FB68B3F52E3F0DD32A
:104850007B689B6D23F0120343F010027B689A651E
:104860007B68002283F85420012391E07B681B6859
:104870001846FFF78FFF0346002BE2D17B681B68C9
:104880001846FFF72EFF02463B6A13443B627B6AE1
:1048900001337B627B6A072BCDD93A6A7B6AB2FB14
:1048A000F3F33B627B681B681846FFF728FF7B68C1
:1048B0001B681846FFF7F4FE0346002B18D1364854
:1048C000FFF7E1FE78617B69B3F5E01F10D37B69E8
:1048D0009B0C033B012202FA03F3BB60BB685B083D
:1048E000BB6002E0BB68013BBB60BB68002BF9D139
:1048F0007B681B68396A1846FFF7DFFE7B681B6818
:104900001846FFF70FFFFDF70DFF38611CE0FDF7BC
:1049100009FF02463B69D31A022B15D97B681B6835
:104920001846FFF712FF0346002B0DD07B689B6DE6
:1049300043F010027B689A657B68DB6D43F00102EF
:104940007B68DA65012323E07B681B681846FFF764
:10495000FCFE0346002BDAD17B681B68D9687B68B4
:104960001B68BA690A43DA607B689B6D23F0030316
:1049700043F001027B689A6505E07B689B6D43F01C
:1049800010027B689A657B68002283F85420FB7FC5
:1049900018462837BD4680BD0827014080B485B041
:1049A00000AF78607B6803F00703FB600C4BDB68AB
:1049B000BB60BA684FF6FF031340BB60FB681A0286
:1049C000BB68134343F0BF6343F40033BB60044A46
:1049D000BB68D36000BF1437BD4680BC704700BFC2
:1049E00000ED00E080B400AF044BDB681B0A03F06D
:1049F00007031846BD4680BC704700BF00ED00E0CD
:104A000080B483B000AF0346FB7197F90730002BE9
:104A10000BDBFB7903F01F02064997F907305B09AE
:104A2000012000FA02F241F8232000BF0C37BD46F6
:104A300080BC704700E100E080B483B000AF034663
:104A4000FB7197F90730002B12DBFB7903F01F0293
:104A50000A4997F907305B09012000FA02F2203376
:104A600041F82320BFF34F8F00BFBFF36F8F00BF0C
:104A700000BF0C37BD4680BC704700BF00E100E0BE
:104A800080B483B000AF03463960FB7197F90730FB
:104A9000002B0ADB3B68DAB20C4997F907301201A8
:104AA000D2B20B4483F800230AE03B68DAB208492B
:104AB000FB7903F00F03043B1201D2B20B441A76C8
:104AC00000BF0C37BD4680BC704700BF00E100E06E
:104AD00000ED00E080B489B000AFF860B9607A60A2
:104AE000FB6803F00703FB61FB69C3F10703042BB9
:104AF00028BF0423BB61FB690433062B02D9FB6981
:104B0000033B00E000237B614FF0FF32BB6902FAF8
:104B100003F3DA43BB681A407B699A404FF0FF31D8
:104B20007B6901FA03F3D9437B680B4013431846B2
:104B30002437BD4680BC704780B582B000AF786036
:104B40007868FFF72BFF00BF0837BD4680BD80B5F2
:104B500086B000AF0346B9607A60FB73FFF742FF8F
:104B600078617A68B9687869FFF7B4FF024697F907
:104B70000F3011461846FFF783FF00BF1837BD46B8
:104B800080BD80B582B000AF0346FB7197F9073056
:104B90001846FFF735FF00BF0837BD4680BD80B51A
:104BA00082B000AF0346FB7197F907301846FFF754
:104BB00043FF00BF0837BD4680BD000080B582B00E
:104BC00000AF78607B68002B01D101238EE07B6809
:104BD0001B681A46474B9A420FD87B681B681A46D7
:104BE000454B1344454AA2FB03231B099A007B68EB
:104BF0005A647B68424A1A640EE07B681B681A4656
:104C0000404B13443D4AA2FB03231B099A007B68D7
:104C10005A647B683C4A1A647B68022283F8252028
:104C20007B681B681B687A68126823F4FF4323F0D3
:104C3000700313607B681B6819687B689A687B68DF
:104C4000DB681A437B681B691A437B685B691A43FC
:104C50007B689B691A437B68DB691A437B681B6A24
:104C60001A437B681B680A431A60786800F024FBCB
:104C70007B689B68B3F5804F02D17B6800225A6045
:104C80007B685A687B689B6C02F07F021A607B68C5
:104C9000DB6C7A68126D5A607B685B68002B10D001
:104CA0007B685B68042B0CD8786800F04DFB7B6850
:104CB0005B6D00221A607B689B6D7A68D26D5A60CA
:104CC00008E07B6800225A657B6800229A657B6851
:104CD0000022DA657B680022DA637B68012283F8B0
:104CE00025207B68002283F82420002318460837FB
:104CF000BD4680BD07040240F8FFFDBFCDCCCCCC43
:104D000000000240F8FBFDBF0004024080B582B005
:104D100000AF78607B68002B01D101237BE07B68CA
:104D20001B681A687B681B6822F001021A607B68A6
:104D30001B681A463A4B9A420FD87B681B681A4682
:104D4000384B1344384AA2FB03231B099A007B68A3
:104D50005A647B68354A1A640EE07B681B681A4601
:104D6000334B1344304AA2FB03231B099A007B6890
:104D70005A647B682F4A1A647B681B6800221A6099
:104D80007B685B6C03F01C027B681B6C012101FAE1
:104D900002F25A60786800F08FFA7B689B6C002200
:104DA0001A607B68DB6C7A68126D5A607B685B689E
:104DB000002B0FD07B685B68042B0BD8786800F061
:104DC000C3FA7B685B6D00221A607B689B6D7A6812
:104DD000D26D5A607B6800225A657B6800229A6512
:104DE0007B680022DA657B680022DA627B68002239
:104DF0001A637B6800225A637B6800229A637B688F
:104E00000022DA637B68002283F825207B68002279
:104E100083F82420002318460837BD4680BD00BF14
:104E200007040240F8FFFDBFCDCCCCCC000002400F
:104E3000F8FBFDBF0004024080B586B000AFF8600B
:104E4000B9607A603B600023FB75FB6893F82430FF
:104E5000012B01D1022369E0FB68012283F82420A1
:104E6000FB6893F82530DBB2012B55D1FB68022299
:104E700083F82520FB680022DA63FB681B681A6848
:104E8000FB681B6822F001021A603B687A68B96807
:104E9000F86800F0D3F9FB681B6B002B08D0FB68A7
:104EA0001B681A68FB681B6842F00E021A600FE06C
:104EB000FB681B681A68FB681B6822F004021A6012
:104EC000FB681B681A68FB681B6842F00A021A60DC
:104ED000FB689B6C1B6803F48033002B07D0FB68D6
:104EE0009B6C1A68FB689B6C42F480721A60FB68CA
:104EF0005B6D002B07D0FB685B6D1A68FB685B6D10
:104F000042F480721A60FB681B681A68FB681B68B1
:104F100042F001021A6008E0FB688022DA63FB6855
:104F2000002283F824200123FB75FB7D18461837E7
:104F3000BD4680BD80B483B000AF78607B68002B35
:104F400001D101234FE07B6893F82530DBB2022BBF
:104F500008D07B680422DA637B68002283F824206F
:104F6000012340E07B681B681A687B681B6822F09D
:104F700001021A607B681B681A687B681B6822F054
:104F80000E021A607B689B6C1A687B689B6C22F42B
:104F900080721A607B685B6C03F01C027B681B6C80
:104FA000012101FA02F25A607B68DB6C7A68126DAB
:104FB0005A607B685B6D002B0CD07B685B6D1A6858
:104FC0007B685B6D22F480721A607B689B6D7A68E7
:104FD000D26D5A607B68012283F825207B6800220D
:104FE00083F82420002318460C37BD4680BC704748
:104FF00080B584B000AF78600023FB737B6893F8C2
:105000002530DBB2022B05D07B680422DA63012352
:10501000FB7347E07B681B681A687B681B6822F09B
:1050200001021A607B681B681A687B681B6822F0A3
:105030000E021A607B689B6C1A687B689B6C22F47A
:1050400080721A607B685B6C03F01C027B681B6CCF
:10505000012101FA02F25A607B68DB6C7A68126DFA
:105060005A607B685B6D002B0CD07B685B6D1A68A7
:105070007B685B6D22F480721A607B689B6D7A6836
:10508000D26D5A607B68012283F825207B6800225C
:1050900083F824207B689B6B002B03D07B689B6B81
:1050A00078689847FB7B18461037BD4680BD0000E6
:1050B00080B584B000AF78607B681B6C1B68FB60B8
:1050C0007B681B681B68BB607B685B6C03F01C0320
:1050D00004229A40FB681340002B27D0BB6803F0E2
:1050E0000403002B22D07B681B681B6803F020039D
:1050F000002B07D17B681B681A687B681B6822F04D
:1051000004021A607B685B6C03F01C027B681B6CFA
:10511000042101FA02F25A607B681B6B002B00F03D
:1051200081807B681B6B786898477BE07B685B6C51
:1051300003F01C0302229A40FB681340002B3DD071
:10514000BB6803F00203002B38D07B681B681B6828
:1051500003F02003002B0BD17B681B681A687B6867
:105160001B6822F00A021A607B68012283F825205E
:105170007B681B681A462E4B9A4209D97B685B6C88
:1051800003F01C032B4A022101FA03F3536008E0E9
:105190007B685B6C03F01C03274A022101FA03F3CE
:1051A00053607B68002283F824207B68DB6A002B35
:1051B00038D07B68DB6A7868984733E07B685B6C43
:1051C00003F01C0308229A40FB681340002B2AD0EE
:1051D000BB6803F00803002B25D07B681B681A68A6
:1051E0007B681B6822F00E021A607B685B6C03F020
:1051F0001C027B681B6C012101FA02F25A607B6879
:105200000122DA637B68012283F825207B68002273
:1052100083F824207B685B6B002B04D07B685B6B7E
:105220007868984700BF00BF1037BD4680BD00BFFB
:1052300080000240000402400000024080B485B0BB
:1052400000AFF860B9607A603B60FB68DB6CFA68BD
:10525000126D5A60FB685B6D002B04D0FB689B6D80
:10526000FA68D26D5A60FB685B6C03F01C02FB6845
:105270001B6C012101FA02F25A60FB681B683A6854
:105280005A60FB689B68102B08D1FB681B687A6822
:105290009A60FB681B68BA68DA6007E0FB681B6805
:1052A000BA689A60FB681B687A68DA6000BF1437D6
:1052B000BD4680BC7047000080B485B000AF786008
:1052C0007B681B681A461C4B9A4213D87B685B6C40
:1052D0009B089B0003F1804303F502337A689364D3
:1052E0007B681B68DBB2083B144AA2FB03231B0943
:1052F000FB6011E07B685B6C9B089A00104B1344C9
:105300007A6893647B681B68DBB2083B0B4AA2FB9C
:1053100003231B090733FB607B680A4ADA64FB68D6
:1053200003F01F0301229A407B681A6500BF1437FF
:10533000BD4680BC704700BF07040240CDCCCCCC3A
:105340001C0802408008024080B485B000AF78603D
:105350007B685B6803F07F03FB60FA680A4B1344C9
:105360009B001A467B685A657B68084A9A65FB6809
:10537000013B03F0030301229A407B68DA6500BF1A
:105380001437BD4680BC70473F8200104009024080
:1053900080B586B000AFF860B960C7E900231C4B48
:1053A0001B78012B01D102232DE0194B01221A7029
:1053B000174B00225A604FF47A7000F069F80346E8
:1053C000FB75FB7D002B1AD1FB68012B05D1D7E9BA
:1053D0000023B86800F0BEF804E03B681946B868DE
:1053E00000F0DEF84FF47A7000F052F80346FB75D7
:1053F000084B5A69FB68DB43064913404B61044B79
:1054000000221A70FB7D18461837BD4680BD00BFCC
:10541000740800200040005880B483B000AF00231F
:10542000FB710B4B5B69002B0BDA094B094A9A6045
:10543000074B094A9A60064B5B69002B01DA01238E
:10544000FB71FB7918460C37BD4680BC704700BF26
:105450000040005823016745AB89EFCD80B483B08D
:1054600000AF0023FB71094B5B69084A43F000431E
:105470005361064B5B69002B01DB0123FB71FB7958
:1054800018460C37BD4680BC704700BF004000582E
:1054900080B584B000AF7860FDF744F9F86009E0AA
:1054A000FDF740F90246FB68D31A7A689A4201D8A0
:1054B000032346E0254B1B6903F48033B3F5803F9B
:1054C000EED0224B1B69BB60BB6803F00103002BCD
:1054D00002D01E4B01221A61BA684CF2FA33134013
:1054E000BB60BB68B3F1804F07D3184B9A69BB68A8
:1054F00003F04043154913438B61BB6823F04043DD
:10550000002B04D0114ABB6823F040431361BB68F1
:10551000002B0ED00E4ABB685360012311E0FDF74B
:1055200001F90246FB68D31A7A689A4201D803232C
:1055300007E0064B1B6903F48023B3F5802FEED000
:10554000002318461037BD4680BD00BF00400058FC
:105550007408002080B485B000AFF860C7E900236C
:105560000E4B5B690D4A43F001035361FB683A68D7
:105570001A60BFF36F8F00BFD7E900014FF0000240
:105580004FF000030A000023F968043113460B6052
:1055900000BF1437BD4680BC704700BF00400058B4
:1055A00080B489B000AF786039604023FB777B68B6
:1055B000BB613B687B61184B5B69174A43F48023EE
:1055C0005361EFF31083FB60FB683B6172B600BF71
:1055D0007B691A68BB691A60BB690433BB617B696C
:1055E00004337B61FB7F013BFB77FB7F002BEFD11B
:1055F00000BF094B1B6903F48033B3F5803FF8D03B
:105600003B69BB60BB6883F3108800BF00BF2437D1
:10561000BD4680BC704700BF0040005880B584B0D4
:1056200000AF78603960284B1B78012B01D1022331
:1056300046E0254B01221A70234B00225A604FF49A
:105640007A70FFF725FF0346FB73FB7B002B33D1FA
:105650007B681B68042B08D100F038F84FF47A708F
:10566000FFF716FF0346FB7324E03B684FF0FF3261
:105670001A607B685B68BB6012E0B86800F036F8BF
:105680004FF47A70FFF704FF0346FB73FB7B002B9C
:1056900003D03B68BA681A600AE0BB680133BB609C
:1056A0007B685A687B689B681344BA689A42E4D363
:1056B00000F07AF800F032F8034B00221A70FB7BFE
:1056C00018461037BD4680BD7408002080B400AF76
:1056D000054B5B69044A43F4803343F00403536190
:1056E00000BFBD4680BC70470040005880B483B006
:1056F00000AF7860084B5B6923F47E727B68DB0047
:105700001343054A43F4803343F00203536100BF5F
:105710000C37BD4680BC70470040005880B400AFD5
:10572000204B1B6803F40073B3F5007F17D11D4BAA
:105730001B681C4A23F4007313601A4B1B68194A38
:1057400043F400631360174B1B68164A23F400638D
:105750001360144B1B68134A43F400731360114B1E
:105760001B6803F48063B3F5806F17D10D4B1B6882
:105770000C4A23F4806313600A4B1B68094A43F404
:1057800080531360074B1B68064A23F48053136051
:10579000044B1B68034A43F48063136000BFBD469B
:1057A00080BC70470040005880B400AF054B5B6977
:1057B000044A23F47E7323F00203536100BFBD4605
:1057C00080BC70470040005880B487B000AF78605C
:1057D000396000237B6140E13B681A6801217B69E5
:1057E00001FA03F31340FB60FB68002B00F03281E9
:1057F0003B685B6803F00303012B05D03B685B68E3
:1058000003F00303022B30D17B689B683B617B690B
:105810005B00032202FA03F3DB433A6913403B6166
:105820003B68DA687B695B0002FA03F33A69134369
:105830003B617B683A699A607B685B683B610122E7
:105840007B6902FA03F3DB433A6913403B613B682F
:105850005B681B0903F001027B6902FA03F33A69F2
:1058600013433B617B683A695A603B685B6803F0AD
:105870000303032B17D07B68DB683B617B695B000C
:10588000032202FA03F3DB433A6913403B613B68AE
:105890009A687B695B0002FA03F33A6913433B6140
:1058A0007B683A69DA603B685B6803F00303022BAC
:1058B00023D17B69DA087B68083253F822303B61D8
:1058C0007B6903F007039B000F2202FA03F3DB431B
:1058D0003A6913403B613B681A697B6903F007032F
:1058E0009B0002FA03F33A6913433B617B69DA08D0
:1058F0007B680832396943F822107B681B683B617A
:105900007B695B00032202FA03F3DB433A6913402D
:105910003B613B685B6803F003027B695B0002FA52
:1059200003F33A6913433B617B683A691A603B6849
:105930005B6803F44033002B00F08C804E4A7B6997
:105940009B08023352F823303B617B6903F0030369
:105950009B00072202FA03F3DB433A6913403B61E1
:105960007B68B3F1904F0DD07B68444A934207D0D7
:105970007B68434A934201D1022304E0072302E0FB
:10598000012300E000237A6902F0030292009340B1
:105990003A6913433B6138497B699B0802333A6992
:1059A00041F82320374B1B683B61FB68DB433A69B6
:1059B00013403B613B685B6803F48013002B03D00A
:1059C0003A69FB6813433B612E4A3B6913602D4BD8
:1059D0005B683B61FB68DB433A6913403B613B68B2
:1059E0005B6803F40013002B03D03A69FB68134390
:1059F0003B61244A3B695360224BD3F880303B61C2
:105A0000FB68DB433A6913403B613B685B6803F426
:105A10008033002B03D03A69FB6813433B61194A7A
:105A20003B69C2F88030174BD3F884303B61FB6888
:105A3000DB433A6913403B613B685B6803F4003326
:105A4000002B03D03A69FB6813433B610D4A3B6965
:105A5000C2F884307B6901337B613B681A687B69DB
:105A600022FA03F3002B7FF4B7AE00BF00BF1C3750
:105A7000BD4680BC704700BF0000014000040048E4
:105A8000000800480008005880B487B000AF786074
:105A9000396000237B61AFE001227B6902FA03F3E6
:105AA0003A6813403B613B69002B00F0A280594AE1
:105AB0007B699B08023352F82330FB607B6903F05B
:105AC00003039B00072202FA03F3FA681340FB600A
:105AD0007B68B3F1904F0DD07B684F4A934207D05B
